{
	"simple_storage.sol": {
		"SimpleStorage": {
			"abi": [
				{
					"inputs": [
						{
							"internalType": "string",
							"name": "_name",
							"type": "string"
						},
						{
							"internalType": "uint256",
							"name": "_favoriteNumber",
							"type": "uint256"
						}
					],
					"name": "addPerson",
					"outputs": [],
					"stateMutability": "nonpayable",
					"type": "function"
				},
				{
					"inputs": [
						{
							"internalType": "uint256",
							"name": "",
							"type": "uint256"
						}
					],
					"name": "favoriteNumberToName",
					"outputs": [
						{
							"internalType": "string",
							"name": "",
							"type": "string"
						}
					],
					"stateMutability": "view",
					"type": "function"
				},
				{
					"inputs": [
						{
							"internalType": "uint256",
							"name": "",
							"type": "uint256"
						}
					],
					"name": "listOfPeople",
					"outputs": [
						{
							"internalType": "uint256",
							"name": "favoriteNumber",
							"type": "uint256"
						},
						{
							"internalType": "string",
							"name": "name",
							"type": "string"
						}
					],
					"stateMutability": "view",
					"type": "function"
				},
				{
					"inputs": [
						{
							"internalType": "string",
							"name": "",
							"type": "string"
						}
					],
					"name": "nameToFavoriteNumber",
					"outputs": [
						{
							"internalType": "uint256",
							"name": "",
							"type": "uint256"
						}
					],
					"stateMutability": "view",
					"type": "function"
				},
				{
					"inputs": [],
					"name": "retrieve",
					"outputs": [
						{
							"internalType": "uint256",
							"name": "",
							"type": "uint256"
						}
					],
					"stateMutability": "view",
					"type": "function"
				},
				{
					"inputs": [],
					"name": "something",
					"outputs": [
						{
							"internalType": "uint256",
							"name": "",
							"type": "uint256"
						}
					],
					"stateMutability": "pure",
					"type": "function"
				},
				{
					"inputs": [
						{
							"internalType": "uint256",
							"name": "_favoriteNumber",
							"type": "uint256"
						}
					],
					"name": "store",
					"outputs": [],
					"stateMutability": "nonpayable",
					"type": "function"
				}
			],
			"devdoc": {
				"kind": "dev",
				"methods": {},
				"version": 1
			},
			"evm": {
				"assembly": "    /* \"simple_storage.sol\":79:1738  contract SimpleStorage {... */\n  mstore(0x40, 0x80)\n    /* \"simple_storage.sol\":195:200  false */\n  0x00\n    /* \"simple_storage.sol\":170:200  bool hasFavoriteNumber = false */\n  dup1\n  exp(0x0100, 0x00)\n  dup2\n  sload\n  dup2\n  0xff\n  mul\n  not\n  and\n  swap1\n  dup4\n  iszero\n  iszero\n  mul\n  or\n  swap1\n  sstore\n  pop\n    /* \"simple_storage.sol\":261:305  string favoriteNumberInText = \"eighty-eight\" */\n  mload(0x40)\n  dup1\n  0x40\n  add\n  0x40\n  mstore\n  dup1\n  0x0c\n  dup2\n  mstore\n  0x20\n  add\n  0x6569676874792d65696768740000000000000000000000000000000000000000\n  dup2\n  mstore\n  pop\n  0x02\n  swap1\n  dup2\n  tag_1\n  swap2\n  swap1\n  tag_2\n  jump\t// in\ntag_1:\n  pop\n    /* \"simple_storage.sol\":333:336  -88 */\n  0xffffffffffffffffffffffffffffffffffffffffffffffffffffffffffffffa8\n    /* \"simple_storage.sol\":312:336  int256 favoriteInt = -88 */\n  0x03\n  sstore\n    /* \"simple_storage.sol\":363:405  0x010a1d148c7E766dB9b08976f3dD371d182735eE */\n  0x010a1d148c7e766db9b08976f3dd371d182735ee\n    /* \"simple_storage.sol\":343:405  address myAddress = 0x010a1d148c7E766dB9b08976f3dD371d182735eE */\n  0x04\n  exp(0x0100, 0x00)\n  dup2\n  sload\n  dup2\n  0xffffffffffffffffffffffffffffffffffffffff\n  mul\n  not\n  and\n  swap1\n  dup4\n  0xffffffffffffffffffffffffffffffffffffffff\n  and\n  mul\n  or\n  swap1\n  sstore\n  pop\n    /* \"simple_storage.sol\":412:443  bytes32 favoriteBytes32 = \"cat\" */\n  sstore(0x05, 0x6361740000000000000000000000000000000000000000000000000000000000)\n    /* \"simple_storage.sol\":79:1738  contract SimpleStorage {... */\n  callvalue\n  dup1\n  iszero\n  tag_3\n  jumpi\n  0x00\n  dup1\n  revert\ntag_3:\n  pop\n  jump(tag_4)\n    /* \"#utility.yul\":7:106   */\ntag_5:\n    /* \"#utility.yul\":59:65   */\n  0x00\n    /* \"#utility.yul\":93:98   */\n  dup2\n    /* \"#utility.yul\":87:99   */\n  mload\n    /* \"#utility.yul\":77:99   */\n  swap1\n  pop\n    /* \"#utility.yul\":7:106   */\n  swap2\n  swap1\n  pop\n  jump\t// out\n    /* \"#utility.yul\":112:292   */\ntag_6:\n    /* \"#utility.yul\":160:237   */\n  0x4e487b7100000000000000000000000000000000000000000000000000000000\n    /* \"#utility.yul\":157:158   */\n  0x00\n    /* \"#utility.yul\":150:238   */\n  mstore\n    /* \"#utility.yul\":257:261   */\n  0x41\n    /* \"#utility.yul\":254:255   */\n  0x04\n    /* \"#utility.yul\":247:262   */\n  mstore\n    /* \"#utility.yul\":281:285   */\n  0x24\n    /* \"#utility.yul\":278:279   */\n  0x00\n    /* \"#utility.yul\":271:286   */\n  revert\n    /* \"#utility.yul\":298:478   */\ntag_7:\n    /* \"#utility.yul\":346:423   */\n  0x4e487b7100000000000000000000000000000000000000000000000000000000\n    /* \"#utility.yul\":343:344   */\n  0x00\n    /* \"#utility.yul\":336:424   */\n  mstore\n    /* \"#utility.yul\":443:447   */\n  0x22\n    /* \"#utility.yul\":440:441   */\n  0x04\n    /* \"#utility.yul\":433:448   */\n  mstore\n    /* \"#utility.yul\":467:471   */\n  0x24\n    /* \"#utility.yul\":464:465   */\n  0x00\n    /* \"#utility.yul\":457:472   */\n  revert\n    /* \"#utility.yul\":484:804   */\ntag_8:\n    /* \"#utility.yul\":528:534   */\n  0x00\n    /* \"#utility.yul\":565:566   */\n  0x02\n    /* \"#utility.yul\":559:563   */\n  dup3\n    /* \"#utility.yul\":555:567   */\n  div\n    /* \"#utility.yul\":545:567   */\n  swap1\n  pop\n    /* \"#utility.yul\":612:613   */\n  0x01\n    /* \"#utility.yul\":606:610   */\n  dup3\n    /* \"#utility.yul\":602:614   */\n  and\n    /* \"#utility.yul\":633:651   */\n  dup1\n    /* \"#utility.yul\":623:704   */\n  tag_30\n  jumpi\n    /* \"#utility.yul\":689:693   */\n  0x7f\n    /* \"#utility.yul\":681:687   */\n  dup3\n    /* \"#utility.yul\":677:694   */\n  and\n    /* \"#utility.yul\":667:694   */\n  swap2\n  pop\n    /* \"#utility.yul\":623:704   */\ntag_30:\n    /* \"#utility.yul\":751:753   */\n  0x20\n    /* \"#utility.yul\":743:749   */\n  dup3\n    /* \"#utility.yul\":740:754   */\n  lt\n    /* \"#utility.yul\":720:738   */\n  dup2\n    /* \"#utility.yul\":717:755   */\n  sub\n    /* \"#utility.yul\":714:798   */\n  tag_31\n  jumpi\n    /* \"#utility.yul\":770:788   */\n  tag_32\n  tag_7\n  jump\t// in\ntag_32:\n    /* \"#utility.yul\":714:798   */\ntag_31:\n    /* \"#utility.yul\":535:804   */\n  pop\n    /* \"#utility.yul\":484:804   */\n  swap2\n  swap1\n  pop\n  jump\t// out\n    /* \"#utility.yul\":810:951   */\ntag_9:\n    /* \"#utility.yul\":859:863   */\n  0x00\n    /* \"#utility.yul\":882:885   */\n  dup2\n    /* \"#utility.yul\":874:885   */\n  swap1\n  pop\n    /* \"#utility.yul\":905:908   */\n  dup2\n    /* \"#utility.yul\":902:903   */\n  0x00\n    /* \"#utility.yul\":895:909   */\n  mstore\n    /* \"#utility.yul\":939:943   */\n  0x20\n    /* \"#utility.yul\":936:937   */\n  0x00\n    /* \"#utility.yul\":926:944   */\n  keccak256\n    /* \"#utility.yul\":918:944   */\n  swap1\n  pop\n    /* \"#utility.yul\":810:951   */\n  swap2\n  swap1\n  pop\n  jump\t// out\n    /* \"#utility.yul\":957:1050   */\ntag_10:\n    /* \"#utility.yul\":994:1000   */\n  0x00\n    /* \"#utility.yul\":1041:1043   */\n  0x20\n    /* \"#utility.yul\":1036:1038   */\n  0x1f\n    /* \"#utility.yul\":1029:1034   */\n  dup4\n    /* \"#utility.yul\":1025:1039   */\n  add\n    /* \"#utility.yul\":1021:1044   */\n  div\n    /* \"#utility.yul\":1011:1044   */\n  swap1\n  pop\n    /* \"#utility.yul\":957:1050   */\n  swap2\n  swap1\n  pop\n  jump\t// out\n    /* \"#utility.yul\":1056:1163   */\ntag_11:\n    /* \"#utility.yul\":1100:1108   */\n  0x00\n    /* \"#utility.yul\":1150:1155   */\n  dup3\n    /* \"#utility.yul\":1144:1148   */\n  dup3\n    /* \"#utility.yul\":1140:1156   */\n  shl\n    /* \"#utility.yul\":1119:1156   */\n  swap1\n  pop\n    /* \"#utility.yul\":1056:1163   */\n  swap3\n  swap2\n  pop\n  pop\n  jump\t// out\n    /* \"#utility.yul\":1169:1562   */\ntag_12:\n    /* \"#utility.yul\":1238:1244   */\n  0x00\n    /* \"#utility.yul\":1288:1289   */\n  0x08\n    /* \"#utility.yul\":1276:1286   */\n  dup4\n    /* \"#utility.yul\":1272:1290   */\n  mul\n    /* \"#utility.yul\":1311:1408   */\n  tag_37\n    /* \"#utility.yul\":1341:1407   */\n  0xffffffffffffffffffffffffffffffffffffffffffffffffffffffffffffffff\n    /* \"#utility.yul\":1330:1339   */\n  dup3\n    /* \"#utility.yul\":1311:1408   */\n  tag_11\n  jump\t// in\ntag_37:\n    /* \"#utility.yul\":1429:1468   */\n  tag_38\n    /* \"#utility.yul\":1459:1467   */\n  dup7\n    /* \"#utility.yul\":1448:1457   */\n  dup4\n    /* \"#utility.yul\":1429:1468   */\n  tag_11\n  jump\t// in\ntag_38:\n    /* \"#utility.yul\":1417:1468   */\n  swap6\n  pop\n    /* \"#utility.yul\":1501:1505   */\n  dup1\n    /* \"#utility.yul\":1497:1506   */\n  not\n    /* \"#utility.yul\":1490:1495   */\n  dup5\n    /* \"#utility.yul\":1486:1507   */\n  and\n    /* \"#utility.yul\":1477:1507   */\n  swap4\n  pop\n    /* \"#utility.yul\":1550:1554   */\n  dup1\n    /* \"#utility.yul\":1540:1548   */\n  dup7\n    /* \"#utility.yul\":1536:1555   */\n  and\n    /* \"#utility.yul\":1529:1534   */\n  dup5\n    /* \"#utility.yul\":1526:1556   */\n  or\n    /* \"#utility.yul\":1516:1556   */\n  swap3\n  pop\n    /* \"#utility.yul\":1245:1562   */\n  pop\n  pop\n    /* \"#utility.yul\":1169:1562   */\n  swap4\n  swap3\n  pop\n  pop\n  pop\n  jump\t// out\n    /* \"#utility.yul\":1568:1645   */\ntag_13:\n    /* \"#utility.yul\":1605:1612   */\n  0x00\n    /* \"#utility.yul\":1634:1639   */\n  dup2\n    /* \"#utility.yul\":1623:1639   */\n  swap1\n  pop\n    /* \"#utility.yul\":1568:1645   */\n  swap2\n  swap1\n  pop\n  jump\t// out\n    /* \"#utility.yul\":1651:1711   */\ntag_14:\n    /* \"#utility.yul\":1679:1682   */\n  0x00\n    /* \"#utility.yul\":1700:1705   */\n  dup2\n    /* \"#utility.yul\":1693:1705   */\n  swap1\n  pop\n    /* \"#utility.yul\":1651:1711   */\n  swap2\n  swap1\n  pop\n  jump\t// out\n    /* \"#utility.yul\":1717:1859   */\ntag_15:\n    /* \"#utility.yul\":1767:1776   */\n  0x00\n    /* \"#utility.yul\":1800:1853   */\n  tag_42\n    /* \"#utility.yul\":1818:1852   */\n  tag_43\n    /* \"#utility.yul\":1827:1851   */\n  tag_44\n    /* \"#utility.yul\":1845:1850   */\n  dup5\n    /* \"#utility.yul\":1827:1851   */\n  tag_13\n  jump\t// in\ntag_44:\n    /* \"#utility.yul\":1818:1852   */\n  tag_14\n  jump\t// in\ntag_43:\n    /* \"#utility.yul\":1800:1853   */\n  tag_13\n  jump\t// in\ntag_42:\n    /* \"#utility.yul\":1787:1853   */\n  swap1\n  pop\n    /* \"#utility.yul\":1717:1859   */\n  swap2\n  swap1\n  pop\n  jump\t// out\n    /* \"#utility.yul\":1865:1940   */\ntag_16:\n    /* \"#utility.yul\":1908:1911   */\n  0x00\n    /* \"#utility.yul\":1929:1934   */\n  dup2\n    /* \"#utility.yul\":1922:1934   */\n  swap1\n  pop\n    /* \"#utility.yul\":1865:1940   */\n  swap2\n  swap1\n  pop\n  jump\t// out\n    /* \"#utility.yul\":1946:2215   */\ntag_17:\n    /* \"#utility.yul\":2056:2095   */\n  tag_47\n    /* \"#utility.yul\":2087:2094   */\n  dup4\n    /* \"#utility.yul\":2056:2095   */\n  tag_15\n  jump\t// in\ntag_47:\n    /* \"#utility.yul\":2117:2208   */\n  tag_48\n    /* \"#utility.yul\":2166:2207   */\n  tag_49\n    /* \"#utility.yul\":2190:2206   */\n  dup3\n    /* \"#utility.yul\":2166:2207   */\n  tag_16\n  jump\t// in\ntag_49:\n    /* \"#utility.yul\":2158:2164   */\n  dup5\n    /* \"#utility.yul\":2151:2155   */\n  dup5\n    /* \"#utility.yul\":2145:2156   */\n  sload\n    /* \"#utility.yul\":2117:2208   */\n  tag_12\n  jump\t// in\ntag_48:\n    /* \"#utility.yul\":2111:2115   */\n  dup3\n    /* \"#utility.yul\":2104:2209   */\n  sstore\n    /* \"#utility.yul\":2022:2215   */\n  pop\n    /* \"#utility.yul\":1946:2215   */\n  pop\n  pop\n  pop\n  jump\t// out\n    /* \"#utility.yul\":2221:2294   */\ntag_18:\n    /* \"#utility.yul\":2266:2269   */\n  0x00\n    /* \"#utility.yul\":2221:2294   */\n  swap1\n  jump\t// out\n    /* \"#utility.yul\":2300:2489   */\ntag_19:\n    /* \"#utility.yul\":2377:2409   */\n  tag_52\n  tag_18\n  jump\t// in\ntag_52:\n    /* \"#utility.yul\":2418:2483   */\n  tag_53\n    /* \"#utility.yul\":2476:2482   */\n  dup2\n    /* \"#utility.yul\":2468:2474   */\n  dup5\n    /* \"#utility.yul\":2462:2466   */\n  dup5\n    /* \"#utility.yul\":2418:2483   */\n  tag_17\n  jump\t// in\ntag_53:\n    /* \"#utility.yul\":2353:2489   */\n  pop\n    /* \"#utility.yul\":2300:2489   */\n  pop\n  pop\n  jump\t// out\n    /* \"#utility.yul\":2495:2681   */\ntag_20:\n    /* \"#utility.yul\":2555:2675   */\ntag_55:\n    /* \"#utility.yul\":2572:2575   */\n  dup2\n    /* \"#utility.yul\":2565:2570   */\n  dup2\n    /* \"#utility.yul\":2562:2576   */\n  lt\n    /* \"#utility.yul\":2555:2675   */\n  iszero\n  tag_57\n  jumpi\n    /* \"#utility.yul\":2626:2665   */\n  tag_58\n    /* \"#utility.yul\":2663:2664   */\n  0x00\n    /* \"#utility.yul\":2656:2661   */\n  dup3\n    /* \"#utility.yul\":2626:2665   */\n  tag_19\n  jump\t// in\ntag_58:\n    /* \"#utility.yul\":2599:2600   */\n  0x01\n    /* \"#utility.yul\":2592:2597   */\n  dup2\n    /* \"#utility.yul\":2588:2601   */\n  add\n    /* \"#utility.yul\":2579:2601   */\n  swap1\n  pop\n    /* \"#utility.yul\":2555:2675   */\n  jump(tag_55)\ntag_57:\n    /* \"#utility.yul\":2495:2681   */\n  pop\n  pop\n  jump\t// out\n    /* \"#utility.yul\":2687:3230   */\ntag_21:\n    /* \"#utility.yul\":2788:2790   */\n  0x1f\n    /* \"#utility.yul\":2783:2786   */\n  dup3\n    /* \"#utility.yul\":2780:2791   */\n  gt\n    /* \"#utility.yul\":2777:3223   */\n  iszero\n  tag_60\n  jumpi\n    /* \"#utility.yul\":2822:2860   */\n  tag_61\n    /* \"#utility.yul\":2854:2859   */\n  dup2\n    /* \"#utility.yul\":2822:2860   */\n  tag_9\n  jump\t// in\ntag_61:\n    /* \"#utility.yul\":2906:2935   */\n  tag_62\n    /* \"#utility.yul\":2924:2934   */\n  dup5\n    /* \"#utility.yul\":2906:2935   */\n  tag_10\n  jump\t// in\ntag_62:\n    /* \"#utility.yul\":2896:2904   */\n  dup2\n    /* \"#utility.yul\":2892:2936   */\n  add\n    /* \"#utility.yul\":3089:3091   */\n  0x20\n    /* \"#utility.yul\":3077:3087   */\n  dup6\n    /* \"#utility.yul\":3074:3092   */\n  lt\n    /* \"#utility.yul\":3071:3120   */\n  iszero\n  tag_63\n  jumpi\n    /* \"#utility.yul\":3110:3118   */\n  dup2\n    /* \"#utility.yul\":3095:3118   */\n  swap1\n  pop\n    /* \"#utility.yul\":3071:3120   */\ntag_63:\n    /* \"#utility.yul\":3133:3213   */\n  tag_64\n    /* \"#utility.yul\":3189:3211   */\n  tag_65\n    /* \"#utility.yul\":3207:3210   */\n  dup6\n    /* \"#utility.yul\":3189:3211   */\n  tag_10\n  jump\t// in\ntag_65:\n    /* \"#utility.yul\":3179:3187   */\n  dup4\n    /* \"#utility.yul\":3175:3212   */\n  add\n    /* \"#utility.yul\":3162:3173   */\n  dup3\n    /* \"#utility.yul\":3133:3213   */\n  tag_20\n  jump\t// in\ntag_64:\n    /* \"#utility.yul\":2792:3223   */\n  pop\n  pop\n    /* \"#utility.yul\":2777:3223   */\ntag_60:\n    /* \"#utility.yul\":2687:3230   */\n  pop\n  pop\n  pop\n  jump\t// out\n    /* \"#utility.yul\":3236:3353   */\ntag_22:\n    /* \"#utility.yul\":3290:3298   */\n  0x00\n    /* \"#utility.yul\":3340:3345   */\n  dup3\n    /* \"#utility.yul\":3334:3338   */\n  dup3\n    /* \"#utility.yul\":3330:3346   */\n  shr\n    /* \"#utility.yul\":3309:3346   */\n  swap1\n  pop\n    /* \"#utility.yul\":3236:3353   */\n  swap3\n  swap2\n  pop\n  pop\n  jump\t// out\n    /* \"#utility.yul\":3359:3528   */\ntag_23:\n    /* \"#utility.yul\":3403:3409   */\n  0x00\n    /* \"#utility.yul\":3436:3487   */\n  tag_68\n    /* \"#utility.yul\":3484:3485   */\n  0x00\n    /* \"#utility.yul\":3480:3486   */\n  not\n    /* \"#utility.yul\":3472:3477   */\n  dup5\n    /* \"#utility.yul\":3469:3470   */\n  0x08\n    /* \"#utility.yul\":3465:3478   */\n  mul\n    /* \"#utility.yul\":3436:3487   */\n  tag_22\n  jump\t// in\ntag_68:\n    /* \"#utility.yul\":3432:3488   */\n  not\n    /* \"#utility.yul\":3517:3521   */\n  dup1\n    /* \"#utility.yul\":3511:3515   */\n  dup4\n    /* \"#utility.yul\":3507:3522   */\n  and\n    /* \"#utility.yul\":3497:3522   */\n  swap2\n  pop\n    /* \"#utility.yul\":3410:3528   */\n  pop\n    /* \"#utility.yul\":3359:3528   */\n  swap3\n  swap2\n  pop\n  pop\n  jump\t// out\n    /* \"#utility.yul\":3533:3828   */\ntag_24:\n    /* \"#utility.yul\":3609:3613   */\n  0x00\n    /* \"#utility.yul\":3755:3784   */\n  tag_70\n    /* \"#utility.yul\":3780:3783   */\n  dup4\n    /* \"#utility.yul\":3774:3778   */\n  dup4\n    /* \"#utility.yul\":3755:3784   */\n  tag_23\n  jump\t// in\ntag_70:\n    /* \"#utility.yul\":3747:3784   */\n  swap2\n  pop\n    /* \"#utility.yul\":3817:3820   */\n  dup3\n    /* \"#utility.yul\":3814:3815   */\n  0x02\n    /* \"#utility.yul\":3810:3821   */\n  mul\n    /* \"#utility.yul\":3804:3808   */\n  dup3\n    /* \"#utility.yul\":3801:3822   */\n  or\n    /* \"#utility.yul\":3793:3822   */\n  swap1\n  pop\n    /* \"#utility.yul\":3533:3828   */\n  swap3\n  swap2\n  pop\n  pop\n  jump\t// out\n    /* \"#utility.yul\":3833:5228   */\ntag_2:\n    /* \"#utility.yul\":3950:3987   */\n  tag_72\n    /* \"#utility.yul\":3983:3986   */\n  dup3\n    /* \"#utility.yul\":3950:3987   */\n  tag_5\n  jump\t// in\ntag_72:\n    /* \"#utility.yul\":4052:4070   */\n  0xffffffffffffffff\n    /* \"#utility.yul\":4044:4050   */\n  dup2\n    /* \"#utility.yul\":4041:4071   */\n  gt\n    /* \"#utility.yul\":4038:4094   */\n  iszero\n  tag_73\n  jumpi\n    /* \"#utility.yul\":4074:4092   */\n  tag_74\n  tag_6\n  jump\t// in\ntag_74:\n    /* \"#utility.yul\":4038:4094   */\ntag_73:\n    /* \"#utility.yul\":4118:4156   */\n  tag_75\n    /* \"#utility.yul\":4150:4154   */\n  dup3\n    /* \"#utility.yul\":4144:4155   */\n  sload\n    /* \"#utility.yul\":4118:4156   */\n  tag_8\n  jump\t// in\ntag_75:\n    /* \"#utility.yul\":4203:4270   */\n  tag_76\n    /* \"#utility.yul\":4263:4269   */\n  dup3\n    /* \"#utility.yul\":4255:4261   */\n  dup3\n    /* \"#utility.yul\":4249:4253   */\n  dup6\n    /* \"#utility.yul\":4203:4270   */\n  tag_21\n  jump\t// in\ntag_76:\n    /* \"#utility.yul\":4297:4298   */\n  0x00\n    /* \"#utility.yul\":4321:4325   */\n  0x20\n    /* \"#utility.yul\":4308:4325   */\n  swap1\n  pop\n    /* \"#utility.yul\":4353:4355   */\n  0x1f\n    /* \"#utility.yul\":4345:4351   */\n  dup4\n    /* \"#utility.yul\":4342:4356   */\n  gt\n    /* \"#utility.yul\":4370:4371   */\n  0x01\n    /* \"#utility.yul\":4365:4983   */\n  dup2\n  eq\n  tag_78\n  jumpi\n    /* \"#utility.yul\":5027:5028   */\n  0x00\n    /* \"#utility.yul\":5044:5050   */\n  dup5\n    /* \"#utility.yul\":5041:5118   */\n  iszero\n  tag_79\n  jumpi\n    /* \"#utility.yul\":5093:5102   */\n  dup3\n    /* \"#utility.yul\":5088:5091   */\n  dup8\n    /* \"#utility.yul\":5084:5103   */\n  add\n    /* \"#utility.yul\":5078:5104   */\n  mload\n    /* \"#utility.yul\":5069:5104   */\n  swap1\n  pop\n    /* \"#utility.yul\":5041:5118   */\ntag_79:\n    /* \"#utility.yul\":5144:5211   */\n  tag_80\n    /* \"#utility.yul\":5204:5210   */\n  dup6\n    /* \"#utility.yul\":5197:5202   */\n  dup3\n    /* \"#utility.yul\":5144:5211   */\n  tag_24\n  jump\t// in\ntag_80:\n    /* \"#utility.yul\":5138:5142   */\n  dup7\n    /* \"#utility.yul\":5131:5212   */\n  sstore\n    /* \"#utility.yul\":5000:5222   */\n  pop\n    /* \"#utility.yul\":4335:5222   */\n  jump(tag_77)\n    /* \"#utility.yul\":4365:4983   */\ntag_78:\n    /* \"#utility.yul\":4417:4421   */\n  0x1f\n    /* \"#utility.yul\":4413:4422   */\n  not\n    /* \"#utility.yul\":4405:4411   */\n  dup5\n    /* \"#utility.yul\":4401:4423   */\n  and\n    /* \"#utility.yul\":4451:4488   */\n  tag_81\n    /* \"#utility.yul\":4483:4487   */\n  dup7\n    /* \"#utility.yul\":4451:4488   */\n  tag_9\n  jump\t// in\ntag_81:\n    /* \"#utility.yul\":4510:4511   */\n  0x00\n    /* \"#utility.yul\":4524:4732   */\ntag_82:\n    /* \"#utility.yul\":4538:4545   */\n  dup3\n    /* \"#utility.yul\":4535:4536   */\n  dup2\n    /* \"#utility.yul\":4532:4546   */\n  lt\n    /* \"#utility.yul\":4524:4732   */\n  iszero\n  tag_84\n  jumpi\n    /* \"#utility.yul\":4617:4626   */\n  dup5\n    /* \"#utility.yul\":4612:4615   */\n  dup10\n    /* \"#utility.yul\":4608:4627   */\n  add\n    /* \"#utility.yul\":4602:4628   */\n  mload\n    /* \"#utility.yul\":4594:4600   */\n  dup3\n    /* \"#utility.yul\":4587:4629   */\n  sstore\n    /* \"#utility.yul\":4668:4669   */\n  0x01\n    /* \"#utility.yul\":4660:4666   */\n  dup3\n    /* \"#utility.yul\":4656:4670   */\n  add\n    /* \"#utility.yul\":4646:4670   */\n  swap2\n  pop\n    /* \"#utility.yul\":4715:4717   */\n  0x20\n    /* \"#utility.yul\":4704:4713   */\n  dup6\n    /* \"#utility.yul\":4700:4718   */\n  add\n    /* \"#utility.yul\":4687:4718   */\n  swap5\n  pop\n    /* \"#utility.yul\":4561:4565   */\n  0x20\n    /* \"#utility.yul\":4558:4559   */\n  dup2\n    /* \"#utility.yul\":4554:4566   */\n  add\n    /* \"#utility.yul\":4549:4566   */\n  swap1\n  pop\n    /* \"#utility.yul\":4524:4732   */\n  jump(tag_82)\ntag_84:\n    /* \"#utility.yul\":4760:4766   */\n  dup7\n    /* \"#utility.yul\":4751:4758   */\n  dup4\n    /* \"#utility.yul\":4748:4767   */\n  lt\n    /* \"#utility.yul\":4745:4924   */\n  iszero\n  tag_85\n  jumpi\n    /* \"#utility.yul\":4818:4827   */\n  dup5\n    /* \"#utility.yul\":4813:4816   */\n  dup10\n    /* \"#utility.yul\":4809:4828   */\n  add\n    /* \"#utility.yul\":4803:4829   */\n  mload\n    /* \"#utility.yul\":4861:4909   */\n  tag_86\n    /* \"#utility.yul\":4903:4907   */\n  0x1f\n    /* \"#utility.yul\":4895:4901   */\n  dup10\n    /* \"#utility.yul\":4891:4908   */\n  and\n    /* \"#utility.yul\":4880:4889   */\n  dup3\n    /* \"#utility.yul\":4861:4909   */\n  tag_23\n  jump\t// in\ntag_86:\n    /* \"#utility.yul\":4853:4859   */\n  dup4\n    /* \"#utility.yul\":4846:4910   */\n  sstore\n    /* \"#utility.yul\":4768:4924   */\n  pop\n    /* \"#utility.yul\":4745:4924   */\ntag_85:\n    /* \"#utility.yul\":4970:4971   */\n  0x01\n    /* \"#utility.yul\":4966:4967   */\n  0x02\n    /* \"#utility.yul\":4958:4964   */\n  dup9\n    /* \"#utility.yul\":4954:4968   */\n  mul\n    /* \"#utility.yul\":4950:4972   */\n  add\n    /* \"#utility.yul\":4944:4948   */\n  dup9\n    /* \"#utility.yul\":4937:4973   */\n  sstore\n    /* \"#utility.yul\":4372:4983   */\n  pop\n  pop\n  pop\n    /* \"#utility.yul\":4335:5222   */\ntag_77:\n  pop\n    /* \"#utility.yul\":3925:5228   */\n  pop\n  pop\n  pop\n    /* \"#utility.yul\":3833:5228   */\n  pop\n  pop\n  jump\t// out\n    /* \"simple_storage.sol\":79:1738  contract SimpleStorage {... */\ntag_4:\n  dataSize(sub_0)\n  dup1\n  dataOffset(sub_0)\n  0x00\n  codecopy\n  0x00\n  return\nstop\n\nsub_0: assembly {\n        /* \"simple_storage.sol\":79:1738  contract SimpleStorage {... */\n      mstore(0x40, 0x80)\n      callvalue\n      dup1\n      iszero\n      tag_1\n      jumpi\n      0x00\n      dup1\n      revert\n    tag_1:\n      pop\n      jumpi(tag_2, lt(calldatasize, 0x04))\n      shr(0xe0, calldataload(0x00))\n      dup1\n      0x6f760f41\n      gt\n      tag_10\n      jumpi\n      dup1\n      0x6f760f41\n      eq\n      tag_6\n      jumpi\n      dup1\n      0x8bab8dd5\n      eq\n      tag_7\n      jumpi\n      dup1\n      0xa7a0d537\n      eq\n      tag_8\n      jumpi\n      dup1\n      0xfe379145\n      eq\n      tag_9\n      jumpi\n      jump(tag_2)\n    tag_10:\n      dup1\n      0x2e64cec1\n      eq\n      tag_3\n      jumpi\n      dup1\n      0x2ebce631\n      eq\n      tag_4\n      jumpi\n      dup1\n      0x6057361d\n      eq\n      tag_5\n      jumpi\n    tag_2:\n      0x00\n      dup1\n      revert\n        /* \"simple_storage.sol\":621:711  function retrieve() public view returns(uint256){... */\n    tag_3:\n      tag_11\n      tag_12\n      jump\t// in\n    tag_11:\n      mload(0x40)\n      tag_13\n      swap2\n      swap1\n      tag_14\n      jump\t// in\n    tag_13:\n      mload(0x40)\n      dup1\n      swap2\n      sub\n      swap1\n      return\n        /* \"simple_storage.sol\":1234:1262  Person[] public listOfPeople */\n    tag_4:\n      tag_15\n      0x04\n      dup1\n      calldatasize\n      sub\n      dup2\n      add\n      swap1\n      tag_16\n      swap2\n      swap1\n      tag_17\n      jump\t// in\n    tag_16:\n      tag_18\n      jump\t// in\n    tag_15:\n      mload(0x40)\n      tag_19\n      swap3\n      swap2\n      swap1\n      tag_20\n      jump\t// in\n    tag_19:\n      mload(0x40)\n      dup1\n      swap2\n      sub\n      swap1\n      return\n        /* \"simple_storage.sol\":474:595  function store(uint256 _favoriteNumber) public {... */\n    tag_5:\n      tag_21\n      0x04\n      dup1\n      calldatasize\n      sub\n      dup2\n      add\n      swap1\n      tag_22\n      swap2\n      swap1\n      tag_17\n      jump\t// in\n    tag_22:\n      tag_23\n      jump\t// in\n    tag_21:\n      stop\n        /* \"simple_storage.sol\":1478:1727  function addPerson(string memory _name, uint _favoriteNumber) public {... */\n    tag_6:\n      tag_24\n      0x04\n      dup1\n      calldatasize\n      sub\n      dup2\n      add\n      swap1\n      tag_25\n      swap2\n      swap1\n      tag_26\n      jump\t// in\n    tag_25:\n      tag_27\n      jump\t// in\n    tag_24:\n      stop\n        /* \"simple_storage.sol\":1295:1349  mapping(string => uint256) public nameToFavoriteNumber */\n    tag_7:\n      tag_28\n      0x04\n      dup1\n      calldatasize\n      sub\n      dup2\n      add\n      swap1\n      tag_29\n      swap2\n      swap1\n      tag_30\n      jump\t// in\n    tag_29:\n      tag_31\n      jump\t// in\n    tag_28:\n      mload(0x40)\n      tag_32\n      swap2\n      swap1\n      tag_14\n      jump\t// in\n    tag_32:\n      mload(0x40)\n      dup1\n      swap2\n      sub\n      swap1\n      return\n        /* \"simple_storage.sol\":719:795  function something() public pure returns(uint256){... */\n    tag_8:\n      tag_33\n      tag_34\n      jump\t// in\n    tag_33:\n      mload(0x40)\n      tag_35\n      swap2\n      swap1\n      tag_14\n      jump\t// in\n    tag_35:\n      mload(0x40)\n      dup1\n      swap2\n      sub\n      swap1\n      return\n        /* \"simple_storage.sol\":1369:1423  mapping(uint256 => string) public favoriteNumberToName */\n    tag_9:\n      tag_36\n      0x04\n      dup1\n      calldatasize\n      sub\n      dup2\n      add\n      swap1\n      tag_37\n      swap2\n      swap1\n      tag_17\n      jump\t// in\n    tag_37:\n      tag_38\n      jump\t// in\n    tag_36:\n      mload(0x40)\n      tag_39\n      swap2\n      swap1\n      tag_40\n      jump\t// in\n    tag_39:\n      mload(0x40)\n      dup1\n      swap2\n      sub\n      swap1\n      return\n        /* \"simple_storage.sol\":621:711  function retrieve() public view returns(uint256){... */\n    tag_12:\n        /* \"simple_storage.sol\":661:668  uint256 */\n      0x00\n        /* \"simple_storage.sol\":687:703  myFavoriteNumber */\n      sload(0x01)\n        /* \"simple_storage.sol\":680:703  return myFavoriteNumber */\n      swap1\n      pop\n        /* \"simple_storage.sol\":621:711  function retrieve() public view returns(uint256){... */\n      swap1\n      jump\t// out\n        /* \"simple_storage.sol\":1234:1262  Person[] public listOfPeople */\n    tag_18:\n      0x06\n      dup2\n      dup2\n      sload\n      dup2\n      lt\n      tag_42\n      jumpi\n      0x00\n      dup1\n      revert\n    tag_42:\n      swap1\n      0x00\n      mstore\n      keccak256(0x00, 0x20)\n      swap1\n      0x02\n      mul\n      add\n      0x00\n      swap2\n      pop\n      swap1\n      pop\n      dup1\n      0x00\n      add\n      sload\n      swap1\n      dup1\n      0x01\n      add\n      dup1\n      sload\n      tag_44\n      swap1\n      tag_45\n      jump\t// in\n    tag_44:\n      dup1\n      0x1f\n      add\n      0x20\n      dup1\n      swap2\n      div\n      mul\n      0x20\n      add\n      mload(0x40)\n      swap1\n      dup2\n      add\n      0x40\n      mstore\n      dup1\n      swap3\n      swap2\n      swap1\n      dup2\n      dup2\n      mstore\n      0x20\n      add\n      dup3\n      dup1\n      sload\n      tag_46\n      swap1\n      tag_45\n      jump\t// in\n    tag_46:\n      dup1\n      iszero\n      tag_47\n      jumpi\n      dup1\n      0x1f\n      lt\n      tag_48\n      jumpi\n      0x0100\n      dup1\n      dup4\n      sload\n      div\n      mul\n      dup4\n      mstore\n      swap2\n      0x20\n      add\n      swap2\n      jump(tag_47)\n    tag_48:\n      dup3\n      add\n      swap2\n      swap1\n      0x00\n      mstore\n      keccak256(0x00, 0x20)\n      swap1\n    tag_49:\n      dup2\n      sload\n      dup2\n      mstore\n      swap1\n      0x01\n      add\n      swap1\n      0x20\n      add\n      dup1\n      dup4\n      gt\n      tag_49\n      jumpi\n      dup3\n      swap1\n      sub\n      0x1f\n      and\n      dup3\n      add\n      swap2\n    tag_47:\n      pop\n      pop\n      pop\n      pop\n      pop\n      swap1\n      pop\n      dup3\n      jump\t// out\n        /* \"simple_storage.sol\":474:595  function store(uint256 _favoriteNumber) public {... */\n    tag_23:\n        /* \"simple_storage.sol\":551:566  _favoriteNumber */\n      dup1\n        /* \"simple_storage.sol\":532:548  myFavoriteNumber */\n      0x01\n        /* \"simple_storage.sol\":532:566  myFavoriteNumber = _favoriteNumber */\n      dup2\n      swap1\n      sstore\n      pop\n        /* \"simple_storage.sol\":577:587  retrieve() */\n      tag_51\n        /* \"simple_storage.sol\":577:585  retrieve */\n      tag_12\n        /* \"simple_storage.sol\":577:587  retrieve() */\n      jump\t// in\n    tag_51:\n      pop\n        /* \"simple_storage.sol\":474:595  function store(uint256 _favoriteNumber) public {... */\n      pop\n      jump\t// out\n        /* \"simple_storage.sol\":1478:1727  function addPerson(string memory _name, uint _favoriteNumber) public {... */\n    tag_27:\n        /* \"simple_storage.sol\":1558:1570  listOfPeople */\n      0x06\n        /* \"simple_storage.sol\":1576:1606  Person(_favoriteNumber, _name) */\n      mload(0x40)\n      dup1\n      0x40\n      add\n      0x40\n      mstore\n      dup1\n        /* \"simple_storage.sol\":1583:1598  _favoriteNumber */\n      dup4\n        /* \"simple_storage.sol\":1576:1606  Person(_favoriteNumber, _name) */\n      dup2\n      mstore\n      0x20\n      add\n        /* \"simple_storage.sol\":1600:1605  _name */\n      dup5\n        /* \"simple_storage.sol\":1576:1606  Person(_favoriteNumber, _name) */\n      dup2\n      mstore\n      pop\n        /* \"simple_storage.sol\":1558:1607  listOfPeople.push(Person(_favoriteNumber, _name)) */\n      swap1\n      dup1\n      0x01\n      dup2\n      sload\n      add\n      dup1\n      dup3\n      sstore\n      dup1\n      swap2\n      pop\n      pop\n      0x01\n      swap1\n      sub\n      swap1\n      0x00\n      mstore\n      keccak256(0x00, 0x20)\n      swap1\n      0x02\n      mul\n      add\n      0x00\n      swap1\n      swap2\n      swap1\n      swap2\n      swap1\n      swap2\n      pop\n      0x00\n      dup3\n      add\n      mload\n      dup2\n      0x00\n      add\n      sstore\n      0x20\n      dup3\n      add\n      mload\n      dup2\n      0x01\n      add\n      swap1\n      dup2\n      tag_54\n      swap2\n      swap1\n      tag_55\n      jump\t// in\n    tag_54:\n      pop\n      pop\n      pop\n        /* \"simple_storage.sol\":1648:1663  _favoriteNumber */\n      dup1\n        /* \"simple_storage.sol\":1618:1638  nameToFavoriteNumber */\n      0x07\n        /* \"simple_storage.sol\":1639:1644  _name */\n      dup4\n        /* \"simple_storage.sol\":1618:1645  nameToFavoriteNumber[_name] */\n      mload(0x40)\n      tag_56\n      swap2\n      swap1\n      tag_57\n      jump\t// in\n    tag_56:\n      swap1\n      dup2\n      mstore\n      0x20\n      add\n      mload(0x40)\n      dup1\n      swap2\n      sub\n      swap1\n      keccak256\n        /* \"simple_storage.sol\":1618:1663  nameToFavoriteNumber[_name] = _favoriteNumber */\n      dup2\n      swap1\n      sstore\n      pop\n        /* \"simple_storage.sol\":1714:1719  _name */\n      dup2\n        /* \"simple_storage.sol\":1674:1694  favoriteNumberToName */\n      0x08\n        /* \"simple_storage.sol\":1674:1711  favoriteNumberToName[_favoriteNumber] */\n      0x00\n        /* \"simple_storage.sol\":1695:1710  _favoriteNumber */\n      dup4\n        /* \"simple_storage.sol\":1674:1711  favoriteNumberToName[_favoriteNumber] */\n      dup2\n      mstore\n      0x20\n      add\n      swap1\n      dup2\n      mstore\n      0x20\n      add\n      0x00\n      keccak256\n        /* \"simple_storage.sol\":1674:1719  favoriteNumberToName[_favoriteNumber] = _name */\n      swap1\n      dup2\n      tag_58\n      swap2\n      swap1\n      tag_55\n      jump\t// in\n    tag_58:\n      pop\n        /* \"simple_storage.sol\":1478:1727  function addPerson(string memory _name, uint _favoriteNumber) public {... */\n      pop\n      pop\n      jump\t// out\n        /* \"simple_storage.sol\":1295:1349  mapping(string => uint256) public nameToFavoriteNumber */\n    tag_31:\n      0x07\n      dup2\n      dup1\n      mload\n      0x20\n      dup2\n      add\n      dup3\n      add\n      dup1\n      mload\n      dup5\n      dup3\n      mstore\n      0x20\n      dup4\n      add\n      0x20\n      dup6\n      add\n      keccak256\n      dup2\n      dup4\n      mstore\n      dup1\n      swap6\n      pop\n      pop\n      pop\n      pop\n      pop\n      pop\n      0x00\n      swap2\n      pop\n      swap1\n      pop\n      sload\n      dup2\n      jump\t// out\n        /* \"simple_storage.sol\":719:795  function something() public pure returns(uint256){... */\n    tag_34:\n        /* \"simple_storage.sol\":760:767  uint256 */\n      0x00\n        /* \"simple_storage.sol\":786:787  7 */\n      0x07\n        /* \"simple_storage.sol\":779:787  return 7 */\n      swap1\n      pop\n        /* \"simple_storage.sol\":719:795  function something() public pure returns(uint256){... */\n      swap1\n      jump\t// out\n        /* \"simple_storage.sol\":1369:1423  mapping(uint256 => string) public favoriteNumberToName */\n    tag_38:\n      mstore(0x20, 0x08)\n      dup1\n      0x00\n      mstore\n      keccak256(0x00, 0x40)\n      0x00\n      swap2\n      pop\n      swap1\n      pop\n      dup1\n      sload\n      tag_60\n      swap1\n      tag_45\n      jump\t// in\n    tag_60:\n      dup1\n      0x1f\n      add\n      0x20\n      dup1\n      swap2\n      div\n      mul\n      0x20\n      add\n      mload(0x40)\n      swap1\n      dup2\n      add\n      0x40\n      mstore\n      dup1\n      swap3\n      swap2\n      swap1\n      dup2\n      dup2\n      mstore\n      0x20\n      add\n      dup3\n      dup1\n      sload\n      tag_61\n      swap1\n      tag_45\n      jump\t// in\n    tag_61:\n      dup1\n      iszero\n      tag_62\n      jumpi\n      dup1\n      0x1f\n      lt\n      tag_63\n      jumpi\n      0x0100\n      dup1\n      dup4\n      sload\n      div\n      mul\n      dup4\n      mstore\n      swap2\n      0x20\n      add\n      swap2\n      jump(tag_62)\n    tag_63:\n      dup3\n      add\n      swap2\n      swap1\n      0x00\n      mstore\n      keccak256(0x00, 0x20)\n      swap1\n    tag_64:\n      dup2\n      sload\n      dup2\n      mstore\n      swap1\n      0x01\n      add\n      swap1\n      0x20\n      add\n      dup1\n      dup4\n      gt\n      tag_64\n      jumpi\n      dup3\n      swap1\n      sub\n      0x1f\n      and\n      dup3\n      add\n      swap2\n    tag_62:\n      pop\n      pop\n      pop\n      pop\n      pop\n      dup2\n      jump\t// out\n        /* \"#utility.yul\":7:84   */\n    tag_65:\n        /* \"#utility.yul\":44:51   */\n      0x00\n        /* \"#utility.yul\":73:78   */\n      dup2\n        /* \"#utility.yul\":62:78   */\n      swap1\n      pop\n        /* \"#utility.yul\":7:84   */\n      swap2\n      swap1\n      pop\n      jump\t// out\n        /* \"#utility.yul\":90:208   */\n    tag_66:\n        /* \"#utility.yul\":177:201   */\n      tag_107\n        /* \"#utility.yul\":195:200   */\n      dup2\n        /* \"#utility.yul\":177:201   */\n      tag_65\n      jump\t// in\n    tag_107:\n        /* \"#utility.yul\":172:175   */\n      dup3\n        /* \"#utility.yul\":165:202   */\n      mstore\n        /* \"#utility.yul\":90:208   */\n      pop\n      pop\n      jump\t// out\n        /* \"#utility.yul\":214:436   */\n    tag_14:\n        /* \"#utility.yul\":307:311   */\n      0x00\n        /* \"#utility.yul\":345:347   */\n      0x20\n        /* \"#utility.yul\":334:343   */\n      dup3\n        /* \"#utility.yul\":330:348   */\n      add\n        /* \"#utility.yul\":322:348   */\n      swap1\n      pop\n        /* \"#utility.yul\":358:429   */\n      tag_109\n        /* \"#utility.yul\":426:427   */\n      0x00\n        /* \"#utility.yul\":415:424   */\n      dup4\n        /* \"#utility.yul\":411:428   */\n      add\n        /* \"#utility.yul\":402:408   */\n      dup5\n        /* \"#utility.yul\":358:429   */\n      tag_66\n      jump\t// in\n    tag_109:\n        /* \"#utility.yul\":214:436   */\n      swap3\n      swap2\n      pop\n      pop\n      jump\t// out\n        /* \"#utility.yul\":442:517   */\n    tag_67:\n        /* \"#utility.yul\":475:481   */\n      0x00\n        /* \"#utility.yul\":508:510   */\n      0x40\n        /* \"#utility.yul\":502:511   */\n      mload\n        /* \"#utility.yul\":492:511   */\n      swap1\n      pop\n        /* \"#utility.yul\":442:517   */\n      swap1\n      jump\t// out\n        /* \"#utility.yul\":523:640   */\n    tag_68:\n        /* \"#utility.yul\":632:633   */\n      0x00\n        /* \"#utility.yul\":629:630   */\n      dup1\n        /* \"#utility.yul\":622:634   */\n      revert\n        /* \"#utility.yul\":646:763   */\n    tag_69:\n        /* \"#utility.yul\":755:756   */\n      0x00\n        /* \"#utility.yul\":752:753   */\n      dup1\n        /* \"#utility.yul\":745:757   */\n      revert\n        /* \"#utility.yul\":769:891   */\n    tag_70:\n        /* \"#utility.yul\":842:866   */\n      tag_114\n        /* \"#utility.yul\":860:865   */\n      dup2\n        /* \"#utility.yul\":842:866   */\n      tag_65\n      jump\t// in\n    tag_114:\n        /* \"#utility.yul\":835:840   */\n      dup2\n        /* \"#utility.yul\":832:867   */\n      eq\n        /* \"#utility.yul\":822:885   */\n      tag_115\n      jumpi\n        /* \"#utility.yul\":881:882   */\n      0x00\n        /* \"#utility.yul\":878:879   */\n      dup1\n        /* \"#utility.yul\":871:883   */\n      revert\n        /* \"#utility.yul\":822:885   */\n    tag_115:\n        /* \"#utility.yul\":769:891   */\n      pop\n      jump\t// out\n        /* \"#utility.yul\":897:1036   */\n    tag_71:\n        /* \"#utility.yul\":943:948   */\n      0x00\n        /* \"#utility.yul\":981:987   */\n      dup2\n        /* \"#utility.yul\":968:988   */\n      calldataload\n        /* \"#utility.yul\":959:988   */\n      swap1\n      pop\n        /* \"#utility.yul\":997:1030   */\n      tag_117\n        /* \"#utility.yul\":1024:1029   */\n      dup2\n        /* \"#utility.yul\":997:1030   */\n      tag_70\n      jump\t// in\n    tag_117:\n        /* \"#utility.yul\":897:1036   */\n      swap3\n      swap2\n      pop\n      pop\n      jump\t// out\n        /* \"#utility.yul\":1042:1371   */\n    tag_17:\n        /* \"#utility.yul\":1101:1107   */\n      0x00\n        /* \"#utility.yul\":1150:1152   */\n      0x20\n        /* \"#utility.yul\":1138:1147   */\n      dup3\n        /* \"#utility.yul\":1129:1136   */\n      dup5\n        /* \"#utility.yul\":1125:1148   */\n      sub\n        /* \"#utility.yul\":1121:1153   */\n      slt\n        /* \"#utility.yul\":1118:1237   */\n      iszero\n      tag_119\n      jumpi\n        /* \"#utility.yul\":1156:1235   */\n      tag_120\n      tag_68\n      jump\t// in\n    tag_120:\n        /* \"#utility.yul\":1118:1237   */\n    tag_119:\n        /* \"#utility.yul\":1276:1277   */\n      0x00\n        /* \"#utility.yul\":1301:1354   */\n      tag_121\n        /* \"#utility.yul\":1346:1353   */\n      dup5\n        /* \"#utility.yul\":1337:1343   */\n      dup3\n        /* \"#utility.yul\":1326:1335   */\n      dup6\n        /* \"#utility.yul\":1322:1344   */\n      add\n        /* \"#utility.yul\":1301:1354   */\n      tag_71\n      jump\t// in\n    tag_121:\n        /* \"#utility.yul\":1291:1354   */\n      swap2\n      pop\n        /* \"#utility.yul\":1247:1364   */\n      pop\n        /* \"#utility.yul\":1042:1371   */\n      swap3\n      swap2\n      pop\n      pop\n      jump\t// out\n        /* \"#utility.yul\":1377:1476   */\n    tag_72:\n        /* \"#utility.yul\":1429:1435   */\n      0x00\n        /* \"#utility.yul\":1463:1468   */\n      dup2\n        /* \"#utility.yul\":1457:1469   */\n      mload\n        /* \"#utility.yul\":1447:1469   */\n      swap1\n      pop\n        /* \"#utility.yul\":1377:1476   */\n      swap2\n      swap1\n      pop\n      jump\t// out\n        /* \"#utility.yul\":1482:1651   */\n    tag_73:\n        /* \"#utility.yul\":1566:1577   */\n      0x00\n        /* \"#utility.yul\":1600:1606   */\n      dup3\n        /* \"#utility.yul\":1595:1598   */\n      dup3\n        /* \"#utility.yul\":1588:1607   */\n      mstore\n        /* \"#utility.yul\":1640:1644   */\n      0x20\n        /* \"#utility.yul\":1635:1638   */\n      dup3\n        /* \"#utility.yul\":1631:1645   */\n      add\n        /* \"#utility.yul\":1616:1645   */\n      swap1\n      pop\n        /* \"#utility.yul\":1482:1651   */\n      swap3\n      swap2\n      pop\n      pop\n      jump\t// out\n        /* \"#utility.yul\":1657:1796   */\n    tag_74:\n        /* \"#utility.yul\":1746:1752   */\n      dup3\n        /* \"#utility.yul\":1741:1744   */\n      dup2\n        /* \"#utility.yul\":1736:1739   */\n      dup4\n        /* \"#utility.yul\":1730:1753   */\n      mcopy\n        /* \"#utility.yul\":1787:1788   */\n      0x00\n        /* \"#utility.yul\":1778:1784   */\n      dup4\n        /* \"#utility.yul\":1773:1776   */\n      dup4\n        /* \"#utility.yul\":1769:1785   */\n      add\n        /* \"#utility.yul\":1762:1789   */\n      mstore\n        /* \"#utility.yul\":1657:1796   */\n      pop\n      pop\n      pop\n      jump\t// out\n        /* \"#utility.yul\":1802:1904   */\n    tag_75:\n        /* \"#utility.yul\":1843:1849   */\n      0x00\n        /* \"#utility.yul\":1894:1896   */\n      0x1f\n        /* \"#utility.yul\":1890:1897   */\n      not\n        /* \"#utility.yul\":1885:1887   */\n      0x1f\n        /* \"#utility.yul\":1878:1883   */\n      dup4\n        /* \"#utility.yul\":1874:1888   */\n      add\n        /* \"#utility.yul\":1870:1898   */\n      and\n        /* \"#utility.yul\":1860:1898   */\n      swap1\n      pop\n        /* \"#utility.yul\":1802:1904   */\n      swap2\n      swap1\n      pop\n      jump\t// out\n        /* \"#utility.yul\":1910:2287   */\n    tag_76:\n        /* \"#utility.yul\":1998:2001   */\n      0x00\n        /* \"#utility.yul\":2026:2065   */\n      tag_127\n        /* \"#utility.yul\":2059:2064   */\n      dup3\n        /* \"#utility.yul\":2026:2065   */\n      tag_72\n      jump\t// in\n    tag_127:\n        /* \"#utility.yul\":2081:2152   */\n      tag_128\n        /* \"#utility.yul\":2145:2151   */\n      dup2\n        /* \"#utility.yul\":2140:2143   */\n      dup6\n        /* \"#utility.yul\":2081:2152   */\n      tag_73\n      jump\t// in\n    tag_128:\n        /* \"#utility.yul\":2074:2152   */\n      swap4\n      pop\n        /* \"#utility.yul\":2161:2226   */\n      tag_129\n        /* \"#utility.yul\":2219:2225   */\n      dup2\n        /* \"#utility.yul\":2214:2217   */\n      dup6\n        /* \"#utility.yul\":2207:2211   */\n      0x20\n        /* \"#utility.yul\":2200:2205   */\n      dup7\n        /* \"#utility.yul\":2196:2212   */\n      add\n        /* \"#utility.yul\":2161:2226   */\n      tag_74\n      jump\t// in\n    tag_129:\n        /* \"#utility.yul\":2251:2280   */\n      tag_130\n        /* \"#utility.yul\":2273:2279   */\n      dup2\n        /* \"#utility.yul\":2251:2280   */\n      tag_75\n      jump\t// in\n    tag_130:\n        /* \"#utility.yul\":2246:2249   */\n      dup5\n        /* \"#utility.yul\":2242:2281   */\n      add\n        /* \"#utility.yul\":2235:2281   */\n      swap2\n      pop\n        /* \"#utility.yul\":2002:2287   */\n      pop\n        /* \"#utility.yul\":1910:2287   */\n      swap3\n      swap2\n      pop\n      pop\n      jump\t// out\n        /* \"#utility.yul\":2293:2716   */\n    tag_20:\n        /* \"#utility.yul\":2434:2438   */\n      0x00\n        /* \"#utility.yul\":2472:2474   */\n      0x40\n        /* \"#utility.yul\":2461:2470   */\n      dup3\n        /* \"#utility.yul\":2457:2475   */\n      add\n        /* \"#utility.yul\":2449:2475   */\n      swap1\n      pop\n        /* \"#utility.yul\":2485:2556   */\n      tag_132\n        /* \"#utility.yul\":2553:2554   */\n      0x00\n        /* \"#utility.yul\":2542:2551   */\n      dup4\n        /* \"#utility.yul\":2538:2555   */\n      add\n        /* \"#utility.yul\":2529:2535   */\n      dup6\n        /* \"#utility.yul\":2485:2556   */\n      tag_66\n      jump\t// in\n    tag_132:\n        /* \"#utility.yul\":2603:2612   */\n      dup2\n        /* \"#utility.yul\":2597:2601   */\n      dup2\n        /* \"#utility.yul\":2593:2613   */\n      sub\n        /* \"#utility.yul\":2588:2590   */\n      0x20\n        /* \"#utility.yul\":2577:2586   */\n      dup4\n        /* \"#utility.yul\":2573:2591   */\n      add\n        /* \"#utility.yul\":2566:2614   */\n      mstore\n        /* \"#utility.yul\":2631:2709   */\n      tag_133\n        /* \"#utility.yul\":2704:2708   */\n      dup2\n        /* \"#utility.yul\":2695:2701   */\n      dup5\n        /* \"#utility.yul\":2631:2709   */\n      tag_76\n      jump\t// in\n    tag_133:\n        /* \"#utility.yul\":2623:2709   */\n      swap1\n      pop\n        /* \"#utility.yul\":2293:2716   */\n      swap4\n      swap3\n      pop\n      pop\n      pop\n      jump\t// out\n        /* \"#utility.yul\":2722:2839   */\n    tag_77:\n        /* \"#utility.yul\":2831:2832   */\n      0x00\n        /* \"#utility.yul\":2828:2829   */\n      dup1\n        /* \"#utility.yul\":2821:2833   */\n      revert\n        /* \"#utility.yul\":2845:2962   */\n    tag_78:\n        /* \"#utility.yul\":2954:2955   */\n      0x00\n        /* \"#utility.yul\":2951:2952   */\n      dup1\n        /* \"#utility.yul\":2944:2956   */\n      revert\n        /* \"#utility.yul\":2968:3148   */\n    tag_79:\n        /* \"#utility.yul\":3016:3093   */\n      0x4e487b7100000000000000000000000000000000000000000000000000000000\n        /* \"#utility.yul\":3013:3014   */\n      0x00\n        /* \"#utility.yul\":3006:3094   */\n      mstore\n        /* \"#utility.yul\":3113:3117   */\n      0x41\n        /* \"#utility.yul\":3110:3111   */\n      0x04\n        /* \"#utility.yul\":3103:3118   */\n      mstore\n        /* \"#utility.yul\":3137:3141   */\n      0x24\n        /* \"#utility.yul\":3134:3135   */\n      0x00\n        /* \"#utility.yul\":3127:3142   */\n      revert\n        /* \"#utility.yul\":3154:3435   */\n    tag_80:\n        /* \"#utility.yul\":3237:3264   */\n      tag_138\n        /* \"#utility.yul\":3259:3263   */\n      dup3\n        /* \"#utility.yul\":3237:3264   */\n      tag_75\n      jump\t// in\n    tag_138:\n        /* \"#utility.yul\":3229:3235   */\n      dup2\n        /* \"#utility.yul\":3225:3265   */\n      add\n        /* \"#utility.yul\":3367:3373   */\n      dup2\n        /* \"#utility.yul\":3355:3365   */\n      dup2\n        /* \"#utility.yul\":3352:3374   */\n      lt\n        /* \"#utility.yul\":3331:3349   */\n      0xffffffffffffffff\n        /* \"#utility.yul\":3319:3329   */\n      dup3\n        /* \"#utility.yul\":3316:3350   */\n      gt\n        /* \"#utility.yul\":3313:3375   */\n      or\n        /* \"#utility.yul\":3310:3398   */\n      iszero\n      tag_139\n      jumpi\n        /* \"#utility.yul\":3378:3396   */\n      tag_140\n      tag_79\n      jump\t// in\n    tag_140:\n        /* \"#utility.yul\":3310:3398   */\n    tag_139:\n        /* \"#utility.yul\":3418:3428   */\n      dup1\n        /* \"#utility.yul\":3414:3416   */\n      0x40\n        /* \"#utility.yul\":3407:3429   */\n      mstore\n        /* \"#utility.yul\":3197:3435   */\n      pop\n        /* \"#utility.yul\":3154:3435   */\n      pop\n      pop\n      jump\t// out\n        /* \"#utility.yul\":3441:3570   */\n    tag_81:\n        /* \"#utility.yul\":3475:3481   */\n      0x00\n        /* \"#utility.yul\":3502:3522   */\n      tag_142\n      tag_67\n      jump\t// in\n    tag_142:\n        /* \"#utility.yul\":3492:3522   */\n      swap1\n      pop\n        /* \"#utility.yul\":3531:3564   */\n      tag_143\n        /* \"#utility.yul\":3559:3563   */\n      dup3\n        /* \"#utility.yul\":3551:3557   */\n      dup3\n        /* \"#utility.yul\":3531:3564   */\n      tag_80\n      jump\t// in\n    tag_143:\n        /* \"#utility.yul\":3441:3570   */\n      swap2\n      swap1\n      pop\n      jump\t// out\n        /* \"#utility.yul\":3576:3884   */\n    tag_82:\n        /* \"#utility.yul\":3638:3642   */\n      0x00\n        /* \"#utility.yul\":3728:3746   */\n      0xffffffffffffffff\n        /* \"#utility.yul\":3720:3726   */\n      dup3\n        /* \"#utility.yul\":3717:3747   */\n      gt\n        /* \"#utility.yul\":3714:3770   */\n      iszero\n      tag_145\n      jumpi\n        /* \"#utility.yul\":3750:3768   */\n      tag_146\n      tag_79\n      jump\t// in\n    tag_146:\n        /* \"#utility.yul\":3714:3770   */\n    tag_145:\n        /* \"#utility.yul\":3788:3817   */\n      tag_147\n        /* \"#utility.yul\":3810:3816   */\n      dup3\n        /* \"#utility.yul\":3788:3817   */\n      tag_75\n      jump\t// in\n    tag_147:\n        /* \"#utility.yul\":3780:3817   */\n      swap1\n      pop\n        /* \"#utility.yul\":3872:3876   */\n      0x20\n        /* \"#utility.yul\":3866:3870   */\n      dup2\n        /* \"#utility.yul\":3862:3877   */\n      add\n        /* \"#utility.yul\":3854:3877   */\n      swap1\n      pop\n        /* \"#utility.yul\":3576:3884   */\n      swap2\n      swap1\n      pop\n      jump\t// out\n        /* \"#utility.yul\":3890:4038   */\n    tag_83:\n        /* \"#utility.yul\":3988:3994   */\n      dup3\n        /* \"#utility.yul\":3983:3986   */\n      dup2\n        /* \"#utility.yul\":3978:3981   */\n      dup4\n        /* \"#utility.yul\":3965:3995   */\n      calldatacopy\n        /* \"#utility.yul\":4029:4030   */\n      0x00\n        /* \"#utility.yul\":4020:4026   */\n      dup4\n        /* \"#utility.yul\":4015:4018   */\n      dup4\n        /* \"#utility.yul\":4011:4027   */\n      add\n        /* \"#utility.yul\":4004:4031   */\n      mstore\n        /* \"#utility.yul\":3890:4038   */\n      pop\n      pop\n      pop\n      jump\t// out\n        /* \"#utility.yul\":4044:4469   */\n    tag_84:\n        /* \"#utility.yul\":4122:4127   */\n      0x00\n        /* \"#utility.yul\":4147:4213   */\n      tag_150\n        /* \"#utility.yul\":4163:4212   */\n      tag_151\n        /* \"#utility.yul\":4205:4211   */\n      dup5\n        /* \"#utility.yul\":4163:4212   */\n      tag_82\n      jump\t// in\n    tag_151:\n        /* \"#utility.yul\":4147:4213   */\n      tag_81\n      jump\t// in\n    tag_150:\n        /* \"#utility.yul\":4138:4213   */\n      swap1\n      pop\n        /* \"#utility.yul\":4236:4242   */\n      dup3\n        /* \"#utility.yul\":4229:4234   */\n      dup2\n        /* \"#utility.yul\":4222:4243   */\n      mstore\n        /* \"#utility.yul\":4274:4278   */\n      0x20\n        /* \"#utility.yul\":4267:4272   */\n      dup2\n        /* \"#utility.yul\":4263:4279   */\n      add\n        /* \"#utility.yul\":4312:4315   */\n      dup5\n        /* \"#utility.yul\":4303:4309   */\n      dup5\n        /* \"#utility.yul\":4298:4301   */\n      dup5\n        /* \"#utility.yul\":4294:4310   */\n      add\n        /* \"#utility.yul\":4291:4316   */\n      gt\n        /* \"#utility.yul\":4288:4400   */\n      iszero\n      tag_152\n      jumpi\n        /* \"#utility.yul\":4319:4398   */\n      tag_153\n      tag_78\n      jump\t// in\n    tag_153:\n        /* \"#utility.yul\":4288:4400   */\n    tag_152:\n        /* \"#utility.yul\":4409:4463   */\n      tag_154\n        /* \"#utility.yul\":4456:4462   */\n      dup5\n        /* \"#utility.yul\":4451:4454   */\n      dup3\n        /* \"#utility.yul\":4446:4449   */\n      dup6\n        /* \"#utility.yul\":4409:4463   */\n      tag_83\n      jump\t// in\n    tag_154:\n        /* \"#utility.yul\":4128:4469   */\n      pop\n        /* \"#utility.yul\":4044:4469   */\n      swap4\n      swap3\n      pop\n      pop\n      pop\n      jump\t// out\n        /* \"#utility.yul\":4489:4829   */\n    tag_85:\n        /* \"#utility.yul\":4545:4550   */\n      0x00\n        /* \"#utility.yul\":4594:4597   */\n      dup3\n        /* \"#utility.yul\":4587:4591   */\n      0x1f\n        /* \"#utility.yul\":4579:4585   */\n      dup4\n        /* \"#utility.yul\":4575:4592   */\n      add\n        /* \"#utility.yul\":4571:4598   */\n      slt\n        /* \"#utility.yul\":4561:4683   */\n      tag_156\n      jumpi\n        /* \"#utility.yul\":4602:4681   */\n      tag_157\n      tag_77\n      jump\t// in\n    tag_157:\n        /* \"#utility.yul\":4561:4683   */\n    tag_156:\n        /* \"#utility.yul\":4719:4725   */\n      dup2\n        /* \"#utility.yul\":4706:4726   */\n      calldataload\n        /* \"#utility.yul\":4744:4823   */\n      tag_158\n        /* \"#utility.yul\":4819:4822   */\n      dup5\n        /* \"#utility.yul\":4811:4817   */\n      dup3\n        /* \"#utility.yul\":4804:4808   */\n      0x20\n        /* \"#utility.yul\":4796:4802   */\n      dup7\n        /* \"#utility.yul\":4792:4809   */\n      add\n        /* \"#utility.yul\":4744:4823   */\n      tag_84\n      jump\t// in\n    tag_158:\n        /* \"#utility.yul\":4735:4823   */\n      swap2\n      pop\n        /* \"#utility.yul\":4551:4829   */\n      pop\n        /* \"#utility.yul\":4489:4829   */\n      swap3\n      swap2\n      pop\n      pop\n      jump\t// out\n        /* \"#utility.yul\":4835:5489   */\n    tag_26:\n        /* \"#utility.yul\":4913:4919   */\n      0x00\n        /* \"#utility.yul\":4921:4927   */\n      dup1\n        /* \"#utility.yul\":4970:4972   */\n      0x40\n        /* \"#utility.yul\":4958:4967   */\n      dup4\n        /* \"#utility.yul\":4949:4956   */\n      dup6\n        /* \"#utility.yul\":4945:4968   */\n      sub\n        /* \"#utility.yul\":4941:4973   */\n      slt\n        /* \"#utility.yul\":4938:5057   */\n      iszero\n      tag_160\n      jumpi\n        /* \"#utility.yul\":4976:5055   */\n      tag_161\n      tag_68\n      jump\t// in\n    tag_161:\n        /* \"#utility.yul\":4938:5057   */\n    tag_160:\n        /* \"#utility.yul\":5124:5125   */\n      0x00\n        /* \"#utility.yul\":5113:5122   */\n      dup4\n        /* \"#utility.yul\":5109:5126   */\n      add\n        /* \"#utility.yul\":5096:5127   */\n      calldataload\n        /* \"#utility.yul\":5154:5172   */\n      0xffffffffffffffff\n        /* \"#utility.yul\":5146:5152   */\n      dup2\n        /* \"#utility.yul\":5143:5173   */\n      gt\n        /* \"#utility.yul\":5140:5257   */\n      iszero\n      tag_162\n      jumpi\n        /* \"#utility.yul\":5176:5255   */\n      tag_163\n      tag_69\n      jump\t// in\n    tag_163:\n        /* \"#utility.yul\":5140:5257   */\n    tag_162:\n        /* \"#utility.yul\":5281:5344   */\n      tag_164\n        /* \"#utility.yul\":5336:5343   */\n      dup6\n        /* \"#utility.yul\":5327:5333   */\n      dup3\n        /* \"#utility.yul\":5316:5325   */\n      dup7\n        /* \"#utility.yul\":5312:5334   */\n      add\n        /* \"#utility.yul\":5281:5344   */\n      tag_85\n      jump\t// in\n    tag_164:\n        /* \"#utility.yul\":5271:5344   */\n      swap3\n      pop\n        /* \"#utility.yul\":5067:5354   */\n      pop\n        /* \"#utility.yul\":5393:5395   */\n      0x20\n        /* \"#utility.yul\":5419:5472   */\n      tag_165\n        /* \"#utility.yul\":5464:5471   */\n      dup6\n        /* \"#utility.yul\":5455:5461   */\n      dup3\n        /* \"#utility.yul\":5444:5453   */\n      dup7\n        /* \"#utility.yul\":5440:5462   */\n      add\n        /* \"#utility.yul\":5419:5472   */\n      tag_71\n      jump\t// in\n    tag_165:\n        /* \"#utility.yul\":5409:5472   */\n      swap2\n      pop\n        /* \"#utility.yul\":5364:5482   */\n      pop\n        /* \"#utility.yul\":4835:5489   */\n      swap3\n      pop\n      swap3\n      swap1\n      pop\n      jump\t// out\n        /* \"#utility.yul\":5495:6004   */\n    tag_30:\n        /* \"#utility.yul\":5564:5570   */\n      0x00\n        /* \"#utility.yul\":5613:5615   */\n      0x20\n        /* \"#utility.yul\":5601:5610   */\n      dup3\n        /* \"#utility.yul\":5592:5599   */\n      dup5\n        /* \"#utility.yul\":5588:5611   */\n      sub\n        /* \"#utility.yul\":5584:5616   */\n      slt\n        /* \"#utility.yul\":5581:5700   */\n      iszero\n      tag_167\n      jumpi\n        /* \"#utility.yul\":5619:5698   */\n      tag_168\n      tag_68\n      jump\t// in\n    tag_168:\n        /* \"#utility.yul\":5581:5700   */\n    tag_167:\n        /* \"#utility.yul\":5767:5768   */\n      0x00\n        /* \"#utility.yul\":5756:5765   */\n      dup3\n        /* \"#utility.yul\":5752:5769   */\n      add\n        /* \"#utility.yul\":5739:5770   */\n      calldataload\n        /* \"#utility.yul\":5797:5815   */\n      0xffffffffffffffff\n        /* \"#utility.yul\":5789:5795   */\n      dup2\n        /* \"#utility.yul\":5786:5816   */\n      gt\n        /* \"#utility.yul\":5783:5900   */\n      iszero\n      tag_169\n      jumpi\n        /* \"#utility.yul\":5819:5898   */\n      tag_170\n      tag_69\n      jump\t// in\n    tag_170:\n        /* \"#utility.yul\":5783:5900   */\n    tag_169:\n        /* \"#utility.yul\":5924:5987   */\n      tag_171\n        /* \"#utility.yul\":5979:5986   */\n      dup5\n        /* \"#utility.yul\":5970:5976   */\n      dup3\n        /* \"#utility.yul\":5959:5968   */\n      dup6\n        /* \"#utility.yul\":5955:5977   */\n      add\n        /* \"#utility.yul\":5924:5987   */\n      tag_85\n      jump\t// in\n    tag_171:\n        /* \"#utility.yul\":5914:5987   */\n      swap2\n      pop\n        /* \"#utility.yul\":5710:5997   */\n      pop\n        /* \"#utility.yul\":5495:6004   */\n      swap3\n      swap2\n      pop\n      pop\n      jump\t// out\n        /* \"#utility.yul\":6010:6323   */\n    tag_40:\n        /* \"#utility.yul\":6123:6127   */\n      0x00\n        /* \"#utility.yul\":6161:6163   */\n      0x20\n        /* \"#utility.yul\":6150:6159   */\n      dup3\n        /* \"#utility.yul\":6146:6164   */\n      add\n        /* \"#utility.yul\":6138:6164   */\n      swap1\n      pop\n        /* \"#utility.yul\":6210:6219   */\n      dup2\n        /* \"#utility.yul\":6204:6208   */\n      dup2\n        /* \"#utility.yul\":6200:6220   */\n      sub\n        /* \"#utility.yul\":6196:6197   */\n      0x00\n        /* \"#utility.yul\":6185:6194   */\n      dup4\n        /* \"#utility.yul\":6181:6198   */\n      add\n        /* \"#utility.yul\":6174:6221   */\n      mstore\n        /* \"#utility.yul\":6238:6316   */\n      tag_173\n        /* \"#utility.yul\":6311:6315   */\n      dup2\n        /* \"#utility.yul\":6302:6308   */\n      dup5\n        /* \"#utility.yul\":6238:6316   */\n      tag_76\n      jump\t// in\n    tag_173:\n        /* \"#utility.yul\":6230:6316   */\n      swap1\n      pop\n        /* \"#utility.yul\":6010:6323   */\n      swap3\n      swap2\n      pop\n      pop\n      jump\t// out\n        /* \"#utility.yul\":6329:6509   */\n    tag_86:\n        /* \"#utility.yul\":6377:6454   */\n      0x4e487b7100000000000000000000000000000000000000000000000000000000\n        /* \"#utility.yul\":6374:6375   */\n      0x00\n        /* \"#utility.yul\":6367:6455   */\n      mstore\n        /* \"#utility.yul\":6474:6478   */\n      0x22\n        /* \"#utility.yul\":6471:6472   */\n      0x04\n        /* \"#utility.yul\":6464:6479   */\n      mstore\n        /* \"#utility.yul\":6498:6502   */\n      0x24\n        /* \"#utility.yul\":6495:6496   */\n      0x00\n        /* \"#utility.yul\":6488:6503   */\n      revert\n        /* \"#utility.yul\":6515:6835   */\n    tag_45:\n        /* \"#utility.yul\":6559:6565   */\n      0x00\n        /* \"#utility.yul\":6596:6597   */\n      0x02\n        /* \"#utility.yul\":6590:6594   */\n      dup3\n        /* \"#utility.yul\":6586:6598   */\n      div\n        /* \"#utility.yul\":6576:6598   */\n      swap1\n      pop\n        /* \"#utility.yul\":6643:6644   */\n      0x01\n        /* \"#utility.yul\":6637:6641   */\n      dup3\n        /* \"#utility.yul\":6633:6645   */\n      and\n        /* \"#utility.yul\":6664:6682   */\n      dup1\n        /* \"#utility.yul\":6654:6735   */\n      tag_176\n      jumpi\n        /* \"#utility.yul\":6720:6724   */\n      0x7f\n        /* \"#utility.yul\":6712:6718   */\n      dup3\n        /* \"#utility.yul\":6708:6725   */\n      and\n        /* \"#utility.yul\":6698:6725   */\n      swap2\n      pop\n        /* \"#utility.yul\":6654:6735   */\n    tag_176:\n        /* \"#utility.yul\":6782:6784   */\n      0x20\n        /* \"#utility.yul\":6774:6780   */\n      dup3\n        /* \"#utility.yul\":6771:6785   */\n      lt\n        /* \"#utility.yul\":6751:6769   */\n      dup2\n        /* \"#utility.yul\":6748:6786   */\n      sub\n        /* \"#utility.yul\":6745:6829   */\n      tag_177\n      jumpi\n        /* \"#utility.yul\":6801:6819   */\n      tag_178\n      tag_86\n      jump\t// in\n    tag_178:\n        /* \"#utility.yul\":6745:6829   */\n    tag_177:\n        /* \"#utility.yul\":6566:6835   */\n      pop\n        /* \"#utility.yul\":6515:6835   */\n      swap2\n      swap1\n      pop\n      jump\t// out\n        /* \"#utility.yul\":6841:6982   */\n    tag_87:\n        /* \"#utility.yul\":6890:6894   */\n      0x00\n        /* \"#utility.yul\":6913:6916   */\n      dup2\n        /* \"#utility.yul\":6905:6916   */\n      swap1\n      pop\n        /* \"#utility.yul\":6936:6939   */\n      dup2\n        /* \"#utility.yul\":6933:6934   */\n      0x00\n        /* \"#utility.yul\":6926:6940   */\n      mstore\n        /* \"#utility.yul\":6970:6974   */\n      0x20\n        /* \"#utility.yul\":6967:6968   */\n      0x00\n        /* \"#utility.yul\":6957:6975   */\n      keccak256\n        /* \"#utility.yul\":6949:6975   */\n      swap1\n      pop\n        /* \"#utility.yul\":6841:6982   */\n      swap2\n      swap1\n      pop\n      jump\t// out\n        /* \"#utility.yul\":6988:7081   */\n    tag_88:\n        /* \"#utility.yul\":7025:7031   */\n      0x00\n        /* \"#utility.yul\":7072:7074   */\n      0x20\n        /* \"#utility.yul\":7067:7069   */\n      0x1f\n        /* \"#utility.yul\":7060:7065   */\n      dup4\n        /* \"#utility.yul\":7056:7070   */\n      add\n        /* \"#utility.yul\":7052:7075   */\n      div\n        /* \"#utility.yul\":7042:7075   */\n      swap1\n      pop\n        /* \"#utility.yul\":6988:7081   */\n      swap2\n      swap1\n      pop\n      jump\t// out\n        /* \"#utility.yul\":7087:7194   */\n    tag_89:\n        /* \"#utility.yul\":7131:7139   */\n      0x00\n        /* \"#utility.yul\":7181:7186   */\n      dup3\n        /* \"#utility.yul\":7175:7179   */\n      dup3\n        /* \"#utility.yul\":7171:7187   */\n      shl\n        /* \"#utility.yul\":7150:7187   */\n      swap1\n      pop\n        /* \"#utility.yul\":7087:7194   */\n      swap3\n      swap2\n      pop\n      pop\n      jump\t// out\n        /* \"#utility.yul\":7200:7593   */\n    tag_90:\n        /* \"#utility.yul\":7269:7275   */\n      0x00\n        /* \"#utility.yul\":7319:7320   */\n      0x08\n        /* \"#utility.yul\":7307:7317   */\n      dup4\n        /* \"#utility.yul\":7303:7321   */\n      mul\n        /* \"#utility.yul\":7342:7439   */\n      tag_183\n        /* \"#utility.yul\":7372:7438   */\n      0xffffffffffffffffffffffffffffffffffffffffffffffffffffffffffffffff\n        /* \"#utility.yul\":7361:7370   */\n      dup3\n        /* \"#utility.yul\":7342:7439   */\n      tag_89\n      jump\t// in\n    tag_183:\n        /* \"#utility.yul\":7460:7499   */\n      tag_184\n        /* \"#utility.yul\":7490:7498   */\n      dup7\n        /* \"#utility.yul\":7479:7488   */\n      dup4\n        /* \"#utility.yul\":7460:7499   */\n      tag_89\n      jump\t// in\n    tag_184:\n        /* \"#utility.yul\":7448:7499   */\n      swap6\n      pop\n        /* \"#utility.yul\":7532:7536   */\n      dup1\n        /* \"#utility.yul\":7528:7537   */\n      not\n        /* \"#utility.yul\":7521:7526   */\n      dup5\n        /* \"#utility.yul\":7517:7538   */\n      and\n        /* \"#utility.yul\":7508:7538   */\n      swap4\n      pop\n        /* \"#utility.yul\":7581:7585   */\n      dup1\n        /* \"#utility.yul\":7571:7579   */\n      dup7\n        /* \"#utility.yul\":7567:7586   */\n      and\n        /* \"#utility.yul\":7560:7565   */\n      dup5\n        /* \"#utility.yul\":7557:7587   */\n      or\n        /* \"#utility.yul\":7547:7587   */\n      swap3\n      pop\n        /* \"#utility.yul\":7276:7593   */\n      pop\n      pop\n        /* \"#utility.yul\":7200:7593   */\n      swap4\n      swap3\n      pop\n      pop\n      pop\n      jump\t// out\n        /* \"#utility.yul\":7599:7659   */\n    tag_91:\n        /* \"#utility.yul\":7627:7630   */\n      0x00\n        /* \"#utility.yul\":7648:7653   */\n      dup2\n        /* \"#utility.yul\":7641:7653   */\n      swap1\n      pop\n        /* \"#utility.yul\":7599:7659   */\n      swap2\n      swap1\n      pop\n      jump\t// out\n        /* \"#utility.yul\":7665:7807   */\n    tag_92:\n        /* \"#utility.yul\":7715:7724   */\n      0x00\n        /* \"#utility.yul\":7748:7801   */\n      tag_187\n        /* \"#utility.yul\":7766:7800   */\n      tag_188\n        /* \"#utility.yul\":7775:7799   */\n      tag_189\n        /* \"#utility.yul\":7793:7798   */\n      dup5\n        /* \"#utility.yul\":7775:7799   */\n      tag_65\n      jump\t// in\n    tag_189:\n        /* \"#utility.yul\":7766:7800   */\n      tag_91\n      jump\t// in\n    tag_188:\n        /* \"#utility.yul\":7748:7801   */\n      tag_65\n      jump\t// in\n    tag_187:\n        /* \"#utility.yul\":7735:7801   */\n      swap1\n      pop\n        /* \"#utility.yul\":7665:7807   */\n      swap2\n      swap1\n      pop\n      jump\t// out\n        /* \"#utility.yul\":7813:7888   */\n    tag_93:\n        /* \"#utility.yul\":7856:7859   */\n      0x00\n        /* \"#utility.yul\":7877:7882   */\n      dup2\n        /* \"#utility.yul\":7870:7882   */\n      swap1\n      pop\n        /* \"#utility.yul\":7813:7888   */\n      swap2\n      swap1\n      pop\n      jump\t// out\n        /* \"#utility.yul\":7894:8163   */\n    tag_94:\n        /* \"#utility.yul\":8004:8043   */\n      tag_192\n        /* \"#utility.yul\":8035:8042   */\n      dup4\n        /* \"#utility.yul\":8004:8043   */\n      tag_92\n      jump\t// in\n    tag_192:\n        /* \"#utility.yul\":8065:8156   */\n      tag_193\n        /* \"#utility.yul\":8114:8155   */\n      tag_194\n        /* \"#utility.yul\":8138:8154   */\n      dup3\n        /* \"#utility.yul\":8114:8155   */\n      tag_93\n      jump\t// in\n    tag_194:\n        /* \"#utility.yul\":8106:8112   */\n      dup5\n        /* \"#utility.yul\":8099:8103   */\n      dup5\n        /* \"#utility.yul\":8093:8104   */\n      sload\n        /* \"#utility.yul\":8065:8156   */\n      tag_90\n      jump\t// in\n    tag_193:\n        /* \"#utility.yul\":8059:8063   */\n      dup3\n        /* \"#utility.yul\":8052:8157   */\n      sstore\n        /* \"#utility.yul\":7970:8163   */\n      pop\n        /* \"#utility.yul\":7894:8163   */\n      pop\n      pop\n      pop\n      jump\t// out\n        /* \"#utility.yul\":8169:8242   */\n    tag_95:\n        /* \"#utility.yul\":8214:8217   */\n      0x00\n        /* \"#utility.yul\":8169:8242   */\n      swap1\n      jump\t// out\n        /* \"#utility.yul\":8248:8437   */\n    tag_96:\n        /* \"#utility.yul\":8325:8357   */\n      tag_197\n      tag_95\n      jump\t// in\n    tag_197:\n        /* \"#utility.yul\":8366:8431   */\n      tag_198\n        /* \"#utility.yul\":8424:8430   */\n      dup2\n        /* \"#utility.yul\":8416:8422   */\n      dup5\n        /* \"#utility.yul\":8410:8414   */\n      dup5\n        /* \"#utility.yul\":8366:8431   */\n      tag_94\n      jump\t// in\n    tag_198:\n        /* \"#utility.yul\":8301:8437   */\n      pop\n        /* \"#utility.yul\":8248:8437   */\n      pop\n      pop\n      jump\t// out\n        /* \"#utility.yul\":8443:8629   */\n    tag_97:\n        /* \"#utility.yul\":8503:8623   */\n    tag_200:\n        /* \"#utility.yul\":8520:8523   */\n      dup2\n        /* \"#utility.yul\":8513:8518   */\n      dup2\n        /* \"#utility.yul\":8510:8524   */\n      lt\n        /* \"#utility.yul\":8503:8623   */\n      iszero\n      tag_202\n      jumpi\n        /* \"#utility.yul\":8574:8613   */\n      tag_203\n        /* \"#utility.yul\":8611:8612   */\n      0x00\n        /* \"#utility.yul\":8604:8609   */\n      dup3\n        /* \"#utility.yul\":8574:8613   */\n      tag_96\n      jump\t// in\n    tag_203:\n        /* \"#utility.yul\":8547:8548   */\n      0x01\n        /* \"#utility.yul\":8540:8545   */\n      dup2\n        /* \"#utility.yul\":8536:8549   */\n      add\n        /* \"#utility.yul\":8527:8549   */\n      swap1\n      pop\n        /* \"#utility.yul\":8503:8623   */\n      jump(tag_200)\n    tag_202:\n        /* \"#utility.yul\":8443:8629   */\n      pop\n      pop\n      jump\t// out\n        /* \"#utility.yul\":8635:9178   */\n    tag_98:\n        /* \"#utility.yul\":8736:8738   */\n      0x1f\n        /* \"#utility.yul\":8731:8734   */\n      dup3\n        /* \"#utility.yul\":8728:8739   */\n      gt\n        /* \"#utility.yul\":8725:9171   */\n      iszero\n      tag_205\n      jumpi\n        /* \"#utility.yul\":8770:8808   */\n      tag_206\n        /* \"#utility.yul\":8802:8807   */\n      dup2\n        /* \"#utility.yul\":8770:8808   */\n      tag_87\n      jump\t// in\n    tag_206:\n        /* \"#utility.yul\":8854:8883   */\n      tag_207\n        /* \"#utility.yul\":8872:8882   */\n      dup5\n        /* \"#utility.yul\":8854:8883   */\n      tag_88\n      jump\t// in\n    tag_207:\n        /* \"#utility.yul\":8844:8852   */\n      dup2\n        /* \"#utility.yul\":8840:8884   */\n      add\n        /* \"#utility.yul\":9037:9039   */\n      0x20\n        /* \"#utility.yul\":9025:9035   */\n      dup6\n        /* \"#utility.yul\":9022:9040   */\n      lt\n        /* \"#utility.yul\":9019:9068   */\n      iszero\n      tag_208\n      jumpi\n        /* \"#utility.yul\":9058:9066   */\n      dup2\n        /* \"#utility.yul\":9043:9066   */\n      swap1\n      pop\n        /* \"#utility.yul\":9019:9068   */\n    tag_208:\n        /* \"#utility.yul\":9081:9161   */\n      tag_209\n        /* \"#utility.yul\":9137:9159   */\n      tag_210\n        /* \"#utility.yul\":9155:9158   */\n      dup6\n        /* \"#utility.yul\":9137:9159   */\n      tag_88\n      jump\t// in\n    tag_210:\n        /* \"#utility.yul\":9127:9135   */\n      dup4\n        /* \"#utility.yul\":9123:9160   */\n      add\n        /* \"#utility.yul\":9110:9121   */\n      dup3\n        /* \"#utility.yul\":9081:9161   */\n      tag_97\n      jump\t// in\n    tag_209:\n        /* \"#utility.yul\":8740:9171   */\n      pop\n      pop\n        /* \"#utility.yul\":8725:9171   */\n    tag_205:\n        /* \"#utility.yul\":8635:9178   */\n      pop\n      pop\n      pop\n      jump\t// out\n        /* \"#utility.yul\":9184:9301   */\n    tag_99:\n        /* \"#utility.yul\":9238:9246   */\n      0x00\n        /* \"#utility.yul\":9288:9293   */\n      dup3\n        /* \"#utility.yul\":9282:9286   */\n      dup3\n        /* \"#utility.yul\":9278:9294   */\n      shr\n        /* \"#utility.yul\":9257:9294   */\n      swap1\n      pop\n        /* \"#utility.yul\":9184:9301   */\n      swap3\n      swap2\n      pop\n      pop\n      jump\t// out\n        /* \"#utility.yul\":9307:9476   */\n    tag_100:\n        /* \"#utility.yul\":9351:9357   */\n      0x00\n        /* \"#utility.yul\":9384:9435   */\n      tag_213\n        /* \"#utility.yul\":9432:9433   */\n      0x00\n        /* \"#utility.yul\":9428:9434   */\n      not\n        /* \"#utility.yul\":9420:9425   */\n      dup5\n        /* \"#utility.yul\":9417:9418   */\n      0x08\n        /* \"#utility.yul\":9413:9426   */\n      mul\n        /* \"#utility.yul\":9384:9435   */\n      tag_99\n      jump\t// in\n    tag_213:\n        /* \"#utility.yul\":9380:9436   */\n      not\n        /* \"#utility.yul\":9465:9469   */\n      dup1\n        /* \"#utility.yul\":9459:9463   */\n      dup4\n        /* \"#utility.yul\":9455:9470   */\n      and\n        /* \"#utility.yul\":9445:9470   */\n      swap2\n      pop\n        /* \"#utility.yul\":9358:9476   */\n      pop\n        /* \"#utility.yul\":9307:9476   */\n      swap3\n      swap2\n      pop\n      pop\n      jump\t// out\n        /* \"#utility.yul\":9481:9776   */\n    tag_101:\n        /* \"#utility.yul\":9557:9561   */\n      0x00\n        /* \"#utility.yul\":9703:9732   */\n      tag_215\n        /* \"#utility.yul\":9728:9731   */\n      dup4\n        /* \"#utility.yul\":9722:9726   */\n      dup4\n        /* \"#utility.yul\":9703:9732   */\n      tag_100\n      jump\t// in\n    tag_215:\n        /* \"#utility.yul\":9695:9732   */\n      swap2\n      pop\n        /* \"#utility.yul\":9765:9768   */\n      dup3\n        /* \"#utility.yul\":9762:9763   */\n      0x02\n        /* \"#utility.yul\":9758:9769   */\n      mul\n        /* \"#utility.yul\":9752:9756   */\n      dup3\n        /* \"#utility.yul\":9749:9770   */\n      or\n        /* \"#utility.yul\":9741:9770   */\n      swap1\n      pop\n        /* \"#utility.yul\":9481:9776   */\n      swap3\n      swap2\n      pop\n      pop\n      jump\t// out\n        /* \"#utility.yul\":9781:11176   */\n    tag_55:\n        /* \"#utility.yul\":9898:9935   */\n      tag_217\n        /* \"#utility.yul\":9931:9934   */\n      dup3\n        /* \"#utility.yul\":9898:9935   */\n      tag_72\n      jump\t// in\n    tag_217:\n        /* \"#utility.yul\":10000:10018   */\n      0xffffffffffffffff\n        /* \"#utility.yul\":9992:9998   */\n      dup2\n        /* \"#utility.yul\":9989:10019   */\n      gt\n        /* \"#utility.yul\":9986:10042   */\n      iszero\n      tag_218\n      jumpi\n        /* \"#utility.yul\":10022:10040   */\n      tag_219\n      tag_79\n      jump\t// in\n    tag_219:\n        /* \"#utility.yul\":9986:10042   */\n    tag_218:\n        /* \"#utility.yul\":10066:10104   */\n      tag_220\n        /* \"#utility.yul\":10098:10102   */\n      dup3\n        /* \"#utility.yul\":10092:10103   */\n      sload\n        /* \"#utility.yul\":10066:10104   */\n      tag_45\n      jump\t// in\n    tag_220:\n        /* \"#utility.yul\":10151:10218   */\n      tag_221\n        /* \"#utility.yul\":10211:10217   */\n      dup3\n        /* \"#utility.yul\":10203:10209   */\n      dup3\n        /* \"#utility.yul\":10197:10201   */\n      dup6\n        /* \"#utility.yul\":10151:10218   */\n      tag_98\n      jump\t// in\n    tag_221:\n        /* \"#utility.yul\":10245:10246   */\n      0x00\n        /* \"#utility.yul\":10269:10273   */\n      0x20\n        /* \"#utility.yul\":10256:10273   */\n      swap1\n      pop\n        /* \"#utility.yul\":10301:10303   */\n      0x1f\n        /* \"#utility.yul\":10293:10299   */\n      dup4\n        /* \"#utility.yul\":10290:10304   */\n      gt\n        /* \"#utility.yul\":10318:10319   */\n      0x01\n        /* \"#utility.yul\":10313:10931   */\n      dup2\n      eq\n      tag_223\n      jumpi\n        /* \"#utility.yul\":10975:10976   */\n      0x00\n        /* \"#utility.yul\":10992:10998   */\n      dup5\n        /* \"#utility.yul\":10989:11066   */\n      iszero\n      tag_224\n      jumpi\n        /* \"#utility.yul\":11041:11050   */\n      dup3\n        /* \"#utility.yul\":11036:11039   */\n      dup8\n        /* \"#utility.yul\":11032:11051   */\n      add\n        /* \"#utility.yul\":11026:11052   */\n      mload\n        /* \"#utility.yul\":11017:11052   */\n      swap1\n      pop\n        /* \"#utility.yul\":10989:11066   */\n    tag_224:\n        /* \"#utility.yul\":11092:11159   */\n      tag_225\n        /* \"#utility.yul\":11152:11158   */\n      dup6\n        /* \"#utility.yul\":11145:11150   */\n      dup3\n        /* \"#utility.yul\":11092:11159   */\n      tag_101\n      jump\t// in\n    tag_225:\n        /* \"#utility.yul\":11086:11090   */\n      dup7\n        /* \"#utility.yul\":11079:11160   */\n      sstore\n        /* \"#utility.yul\":10948:11170   */\n      pop\n        /* \"#utility.yul\":10283:11170   */\n      jump(tag_222)\n        /* \"#utility.yul\":10313:10931   */\n    tag_223:\n        /* \"#utility.yul\":10365:10369   */\n      0x1f\n        /* \"#utility.yul\":10361:10370   */\n      not\n        /* \"#utility.yul\":10353:10359   */\n      dup5\n        /* \"#utility.yul\":10349:10371   */\n      and\n        /* \"#utility.yul\":10399:10436   */\n      tag_226\n        /* \"#utility.yul\":10431:10435   */\n      dup7\n        /* \"#utility.yul\":10399:10436   */\n      tag_87\n      jump\t// in\n    tag_226:\n        /* \"#utility.yul\":10458:10459   */\n      0x00\n        /* \"#utility.yul\":10472:10680   */\n    tag_227:\n        /* \"#utility.yul\":10486:10493   */\n      dup3\n        /* \"#utility.yul\":10483:10484   */\n      dup2\n        /* \"#utility.yul\":10480:10494   */\n      lt\n        /* \"#utility.yul\":10472:10680   */\n      iszero\n      tag_229\n      jumpi\n        /* \"#utility.yul\":10565:10574   */\n      dup5\n        /* \"#utility.yul\":10560:10563   */\n      dup10\n        /* \"#utility.yul\":10556:10575   */\n      add\n        /* \"#utility.yul\":10550:10576   */\n      mload\n        /* \"#utility.yul\":10542:10548   */\n      dup3\n        /* \"#utility.yul\":10535:10577   */\n      sstore\n        /* \"#utility.yul\":10616:10617   */\n      0x01\n        /* \"#utility.yul\":10608:10614   */\n      dup3\n        /* \"#utility.yul\":10604:10618   */\n      add\n        /* \"#utility.yul\":10594:10618   */\n      swap2\n      pop\n        /* \"#utility.yul\":10663:10665   */\n      0x20\n        /* \"#utility.yul\":10652:10661   */\n      dup6\n        /* \"#utility.yul\":10648:10666   */\n      add\n        /* \"#utility.yul\":10635:10666   */\n      swap5\n      pop\n        /* \"#utility.yul\":10509:10513   */\n      0x20\n        /* \"#utility.yul\":10506:10507   */\n      dup2\n        /* \"#utility.yul\":10502:10514   */\n      add\n        /* \"#utility.yul\":10497:10514   */\n      swap1\n      pop\n        /* \"#utility.yul\":10472:10680   */\n      jump(tag_227)\n    tag_229:\n        /* \"#utility.yul\":10708:10714   */\n      dup7\n        /* \"#utility.yul\":10699:10706   */\n      dup4\n        /* \"#utility.yul\":10696:10715   */\n      lt\n        /* \"#utility.yul\":10693:10872   */\n      iszero\n      tag_230\n      jumpi\n        /* \"#utility.yul\":10766:10775   */\n      dup5\n        /* \"#utility.yul\":10761:10764   */\n      dup10\n        /* \"#utility.yul\":10757:10776   */\n      add\n        /* \"#utility.yul\":10751:10777   */\n      mload\n        /* \"#utility.yul\":10809:10857   */\n      tag_231\n        /* \"#utility.yul\":10851:10855   */\n      0x1f\n        /* \"#utility.yul\":10843:10849   */\n      dup10\n        /* \"#utility.yul\":10839:10856   */\n      and\n        /* \"#utility.yul\":10828:10837   */\n      dup3\n        /* \"#utility.yul\":10809:10857   */\n      tag_100\n      jump\t// in\n    tag_231:\n        /* \"#utility.yul\":10801:10807   */\n      dup4\n        /* \"#utility.yul\":10794:10858   */\n      sstore\n        /* \"#utility.yul\":10716:10872   */\n      pop\n        /* \"#utility.yul\":10693:10872   */\n    tag_230:\n        /* \"#utility.yul\":10918:10919   */\n      0x01\n        /* \"#utility.yul\":10914:10915   */\n      0x02\n        /* \"#utility.yul\":10906:10912   */\n      dup9\n        /* \"#utility.yul\":10902:10916   */\n      mul\n        /* \"#utility.yul\":10898:10920   */\n      add\n        /* \"#utility.yul\":10892:10896   */\n      dup9\n        /* \"#utility.yul\":10885:10921   */\n      sstore\n        /* \"#utility.yul\":10320:10931   */\n      pop\n      pop\n      pop\n        /* \"#utility.yul\":10283:11170   */\n    tag_222:\n      pop\n        /* \"#utility.yul\":9873:11176   */\n      pop\n      pop\n      pop\n        /* \"#utility.yul\":9781:11176   */\n      pop\n      pop\n      jump\t// out\n        /* \"#utility.yul\":11182:11330   */\n    tag_102:\n        /* \"#utility.yul\":11284:11295   */\n      0x00\n        /* \"#utility.yul\":11321:11324   */\n      dup2\n        /* \"#utility.yul\":11306:11324   */\n      swap1\n      pop\n        /* \"#utility.yul\":11182:11330   */\n      swap3\n      swap2\n      pop\n      pop\n      jump\t// out\n        /* \"#utility.yul\":11336:11726   */\n    tag_103:\n        /* \"#utility.yul\":11442:11445   */\n      0x00\n        /* \"#utility.yul\":11470:11509   */\n      tag_234\n        /* \"#utility.yul\":11503:11508   */\n      dup3\n        /* \"#utility.yul\":11470:11509   */\n      tag_72\n      jump\t// in\n    tag_234:\n        /* \"#utility.yul\":11525:11614   */\n      tag_235\n        /* \"#utility.yul\":11607:11613   */\n      dup2\n        /* \"#utility.yul\":11602:11605   */\n      dup6\n        /* \"#utility.yul\":11525:11614   */\n      tag_102\n      jump\t// in\n    tag_235:\n        /* \"#utility.yul\":11518:11614   */\n      swap4\n      pop\n        /* \"#utility.yul\":11623:11688   */\n      tag_236\n        /* \"#utility.yul\":11681:11687   */\n      dup2\n        /* \"#utility.yul\":11676:11679   */\n      dup6\n        /* \"#utility.yul\":11669:11673   */\n      0x20\n        /* \"#utility.yul\":11662:11667   */\n      dup7\n        /* \"#utility.yul\":11658:11674   */\n      add\n        /* \"#utility.yul\":11623:11688   */\n      tag_74\n      jump\t// in\n    tag_236:\n        /* \"#utility.yul\":11713:11719   */\n      dup1\n        /* \"#utility.yul\":11708:11711   */\n      dup5\n        /* \"#utility.yul\":11704:11720   */\n      add\n        /* \"#utility.yul\":11697:11720   */\n      swap2\n      pop\n        /* \"#utility.yul\":11446:11726   */\n      pop\n        /* \"#utility.yul\":11336:11726   */\n      swap3\n      swap2\n      pop\n      pop\n      jump\t// out\n        /* \"#utility.yul\":11732:12007   */\n    tag_57:\n        /* \"#utility.yul\":11864:11867   */\n      0x00\n        /* \"#utility.yul\":11886:11981   */\n      tag_238\n        /* \"#utility.yul\":11977:11980   */\n      dup3\n        /* \"#utility.yul\":11968:11974   */\n      dup5\n        /* \"#utility.yul\":11886:11981   */\n      tag_103\n      jump\t// in\n    tag_238:\n        /* \"#utility.yul\":11879:11981   */\n      swap2\n      pop\n        /* \"#utility.yul\":11998:12001   */\n      dup2\n        /* \"#utility.yul\":11991:12001   */\n      swap1\n      pop\n        /* \"#utility.yul\":11732:12007   */\n      swap3\n      swap2\n      pop\n      pop\n      jump\t// out\n\n    auxdata: 0xa26469706673582212204f5b9c740a225e9c743992aec51044ba94878b8a3cbcf41505852b6a0d33ace064736f6c634300081a0033\n}\n",
				"bytecode": {
					"linkReferences": {},
					"object": "60806040525f805f6101000a81548160ff0219169083151502179055506040518060400160405280600c81526020017f6569676874792d65696768740000000000000000000000000000000000000000815250600290816100609190610348565b507fffffffffffffffffffffffffffffffffffffffffffffffffffffffffffffffa860035573010a1d148c7e766db9b08976f3dd371d182735ee60045f6101000a81548173ffffffffffffffffffffffffffffffffffffffff021916908373ffffffffffffffffffffffffffffffffffffffff1602179055507f6361740000000000000000000000000000000000000000000000000000000000600555348015610108575f80fd5b50610417565b5f81519050919050565b7f4e487b71000000000000000000000000000000000000000000000000000000005f52604160045260245ffd5b7f4e487b71000000000000000000000000000000000000000000000000000000005f52602260045260245ffd5b5f600282049050600182168061018957607f821691505b60208210810361019c5761019b610145565b5b50919050565b5f819050815f5260205f209050919050565b5f6020601f8301049050919050565b5f82821b905092915050565b5f600883026101fe7fffffffffffffffffffffffffffffffffffffffffffffffffffffffffffffffff826101c3565b61020886836101c3565b95508019841693508086168417925050509392505050565b5f819050919050565b5f819050919050565b5f61024c61024761024284610220565b610229565b610220565b9050919050565b5f819050919050565b61026583610232565b61027961027182610253565b8484546101cf565b825550505050565b5f90565b61028d610281565b61029881848461025c565b505050565b5b818110156102bb576102b05f82610285565b60018101905061029e565b5050565b601f821115610300576102d1816101a2565b6102da846101b4565b810160208510156102e9578190505b6102fd6102f5856101b4565b83018261029d565b50505b505050565b5f82821c905092915050565b5f6103205f1984600802610305565b1980831691505092915050565b5f6103388383610311565b9150826002028217905092915050565b6103518261010e565b67ffffffffffffffff81111561036a57610369610118565b5b6103748254610172565b61037f8282856102bf565b5f60209050601f8311600181146103b0575f841561039e578287015190505b6103a8858261032d565b86555061040f565b601f1984166103be866101a2565b5f5b828110156103e5578489015182556001820191506020850194506020810190506103c0565b8683101561040257848901516103fe601f891682610311565b8355505b6001600288020188555050505b505050505050565b610a39806104245f395ff3fe608060405234801561000f575f80fd5b506004361061007b575f3560e01c80636f760f41116100595780636f760f41146100ea5780638bab8dd514610106578063a7a0d53714610136578063fe379145146101545761007b565b80632e64cec11461007f5780632ebce6311461009d5780636057361d146100ce575b5f80fd5b610087610184565b60405161009491906103e0565b60405180910390f35b6100b760048036038101906100b29190610434565b61018d565b6040516100c59291906104cf565b60405180910390f35b6100e860048036038101906100e39190610434565b610242565b005b61010460048036038101906100ff9190610629565b610255565b005b610120600480360381019061011b9190610683565b6102f8565b60405161012d91906103e0565b60405180910390f35b61013e610325565b60405161014b91906103e0565b60405180910390f35b61016e60048036038101906101699190610434565b61032d565b60405161017b91906106ca565b60405180910390f35b5f600154905090565b6006818154811061019c575f80fd5b905f5260205f2090600202015f91509050805f0154908060010180546101c190610717565b80601f01602080910402602001604051908101604052809291908181526020018280546101ed90610717565b80156102385780601f1061020f57610100808354040283529160200191610238565b820191905f5260205f20905b81548152906001019060200180831161021b57829003601f168201915b5050505050905082565b80600181905550610251610184565b5050565b6006604051806040016040528083815260200184815250908060018154018082558091505060019003905f5260205f2090600202015f909190919091505f820151815f015560208201518160010190816102af91906108e4565b505050806007836040516102c391906109ed565b9081526020016040518091039020819055508160085f8381526020019081526020015f2090816102f391906108e4565b505050565b6007818051602081018201805184825260208301602085012081835280955050505050505f915090505481565b5f6007905090565b6008602052805f5260405f205f91509050805461034990610717565b80601f016020809104026020016040519081016040528092919081815260200182805461037590610717565b80156103c05780601f10610397576101008083540402835291602001916103c0565b820191905f5260205f20905b8154815290600101906020018083116103a357829003601f168201915b505050505081565b5f819050919050565b6103da816103c8565b82525050565b5f6020820190506103f35f8301846103d1565b92915050565b5f604051905090565b5f80fd5b5f80fd5b610413816103c8565b811461041d575f80fd5b50565b5f8135905061042e8161040a565b92915050565b5f6020828403121561044957610448610402565b5b5f61045684828501610420565b91505092915050565b5f81519050919050565b5f82825260208201905092915050565b8281835e5f83830152505050565b5f601f19601f8301169050919050565b5f6104a18261045f565b6104ab8185610469565b93506104bb818560208601610479565b6104c481610487565b840191505092915050565b5f6040820190506104e25f8301856103d1565b81810360208301526104f48184610497565b90509392505050565b5f80fd5b5f80fd5b7f4e487b71000000000000000000000000000000000000000000000000000000005f52604160045260245ffd5b61053b82610487565b810181811067ffffffffffffffff8211171561055a57610559610505565b5b80604052505050565b5f61056c6103f9565b90506105788282610532565b919050565b5f67ffffffffffffffff82111561059757610596610505565b5b6105a082610487565b9050602081019050919050565b828183375f83830152505050565b5f6105cd6105c88461057d565b610563565b9050828152602081018484840111156105e9576105e8610501565b5b6105f48482856105ad565b509392505050565b5f82601f8301126106105761060f6104fd565b5b81356106208482602086016105bb565b91505092915050565b5f806040838503121561063f5761063e610402565b5b5f83013567ffffffffffffffff81111561065c5761065b610406565b5b610668858286016105fc565b925050602061067985828601610420565b9150509250929050565b5f6020828403121561069857610697610402565b5b5f82013567ffffffffffffffff8111156106b5576106b4610406565b5b6106c1848285016105fc565b91505092915050565b5f6020820190508181035f8301526106e28184610497565b905092915050565b7f4e487b71000000000000000000000000000000000000000000000000000000005f52602260045260245ffd5b5f600282049050600182168061072e57607f821691505b602082108103610741576107406106ea565b5b50919050565b5f819050815f5260205f209050919050565b5f6020601f8301049050919050565b5f82821b905092915050565b5f600883026107a37fffffffffffffffffffffffffffffffffffffffffffffffffffffffffffffffff82610768565b6107ad8683610768565b95508019841693508086168417925050509392505050565b5f819050919050565b5f6107e86107e36107de846103c8565b6107c5565b6103c8565b9050919050565b5f819050919050565b610801836107ce565b61081561080d826107ef565b848454610774565b825550505050565b5f90565b61082961081d565b6108348184846107f8565b505050565b5b818110156108575761084c5f82610821565b60018101905061083a565b5050565b601f82111561089c5761086d81610747565b61087684610759565b81016020851015610885578190505b61089961089185610759565b830182610839565b50505b505050565b5f82821c905092915050565b5f6108bc5f19846008026108a1565b1980831691505092915050565b5f6108d483836108ad565b9150826002028217905092915050565b6108ed8261045f565b67ffffffffffffffff81111561090657610905610505565b5b6109108254610717565b61091b82828561085b565b5f60209050601f83116001811461094c575f841561093a578287015190505b61094485826108c9565b8655506109ab565b601f19841661095a86610747565b5f5b828110156109815784890151825560018201915060208501945060208101905061095c565b8683101561099e578489015161099a601f8916826108ad565b8355505b6001600288020188555050505b505050505050565b5f81905092915050565b5f6109c78261045f565b6109d181856109b3565b93506109e1818560208601610479565b80840191505092915050565b5f6109f882846109bd565b91508190509291505056fea26469706673582212204f5b9c740a225e9c743992aec51044ba94878b8a3cbcf41505852b6a0d33ace064736f6c634300081a0033",
					"opcodes": "PUSH1 0x80 PUSH1 0x40 MSTORE PUSH0 DUP1 PUSH0 PUSH2 0x100 EXP DUP2 SLOAD DUP2 PUSH1 0xFF MUL NOT AND SWAP1 DUP4 ISZERO ISZERO MUL OR SWAP1 SSTORE POP PUSH1 0x40 MLOAD DUP1 PUSH1 0x40 ADD PUSH1 0x40 MSTORE DUP1 PUSH1 0xC DUP2 MSTORE PUSH1 0x20 ADD PUSH32 0x6569676874792D65696768740000000000000000000000000000000000000000 DUP2 MSTORE POP PUSH1 0x2 SWAP1 DUP2 PUSH2 0x60 SWAP2 SWAP1 PUSH2 0x348 JUMP JUMPDEST POP PUSH32 0xFFFFFFFFFFFFFFFFFFFFFFFFFFFFFFFFFFFFFFFFFFFFFFFFFFFFFFFFFFFFFFA8 PUSH1 0x3 SSTORE PUSH20 0x10A1D148C7E766DB9B08976F3DD371D182735EE PUSH1 0x4 PUSH0 PUSH2 0x100 EXP DUP2 SLOAD DUP2 PUSH20 0xFFFFFFFFFFFFFFFFFFFFFFFFFFFFFFFFFFFFFFFF MUL NOT AND SWAP1 DUP4 PUSH20 0xFFFFFFFFFFFFFFFFFFFFFFFFFFFFFFFFFFFFFFFF AND MUL OR SWAP1 SSTORE POP PUSH32 0x6361740000000000000000000000000000000000000000000000000000000000 PUSH1 0x5 SSTORE CALLVALUE DUP1 ISZERO PUSH2 0x108 JUMPI PUSH0 DUP1 REVERT JUMPDEST POP PUSH2 0x417 JUMP JUMPDEST PUSH0 DUP2 MLOAD SWAP1 POP SWAP2 SWAP1 POP JUMP JUMPDEST PUSH32 0x4E487B7100000000000000000000000000000000000000000000000000000000 PUSH0 MSTORE PUSH1 0x41 PUSH1 0x4 MSTORE PUSH1 0x24 PUSH0 REVERT JUMPDEST PUSH32 0x4E487B7100000000000000000000000000000000000000000000000000000000 PUSH0 MSTORE PUSH1 0x22 PUSH1 0x4 MSTORE PUSH1 0x24 PUSH0 REVERT JUMPDEST PUSH0 PUSH1 0x2 DUP3 DIV SWAP1 POP PUSH1 0x1 DUP3 AND DUP1 PUSH2 0x189 JUMPI PUSH1 0x7F DUP3 AND SWAP2 POP JUMPDEST PUSH1 0x20 DUP3 LT DUP2 SUB PUSH2 0x19C JUMPI PUSH2 0x19B PUSH2 0x145 JUMP JUMPDEST JUMPDEST POP SWAP2 SWAP1 POP JUMP JUMPDEST PUSH0 DUP2 SWAP1 POP DUP2 PUSH0 MSTORE PUSH1 0x20 PUSH0 KECCAK256 SWAP1 POP SWAP2 SWAP1 POP JUMP JUMPDEST PUSH0 PUSH1 0x20 PUSH1 0x1F DUP4 ADD DIV SWAP1 POP SWAP2 SWAP1 POP JUMP JUMPDEST PUSH0 DUP3 DUP3 SHL SWAP1 POP SWAP3 SWAP2 POP POP JUMP JUMPDEST PUSH0 PUSH1 0x8 DUP4 MUL PUSH2 0x1FE PUSH32 0xFFFFFFFFFFFFFFFFFFFFFFFFFFFFFFFFFFFFFFFFFFFFFFFFFFFFFFFFFFFFFFFF DUP3 PUSH2 0x1C3 JUMP JUMPDEST PUSH2 0x208 DUP7 DUP4 PUSH2 0x1C3 JUMP JUMPDEST SWAP6 POP DUP1 NOT DUP5 AND SWAP4 POP DUP1 DUP7 AND DUP5 OR SWAP3 POP POP POP SWAP4 SWAP3 POP POP POP JUMP JUMPDEST PUSH0 DUP2 SWAP1 POP SWAP2 SWAP1 POP JUMP JUMPDEST PUSH0 DUP2 SWAP1 POP SWAP2 SWAP1 POP JUMP JUMPDEST PUSH0 PUSH2 0x24C PUSH2 0x247 PUSH2 0x242 DUP5 PUSH2 0x220 JUMP JUMPDEST PUSH2 0x229 JUMP JUMPDEST PUSH2 0x220 JUMP JUMPDEST SWAP1 POP SWAP2 SWAP1 POP JUMP JUMPDEST PUSH0 DUP2 SWAP1 POP SWAP2 SWAP1 POP JUMP JUMPDEST PUSH2 0x265 DUP4 PUSH2 0x232 JUMP JUMPDEST PUSH2 0x279 PUSH2 0x271 DUP3 PUSH2 0x253 JUMP JUMPDEST DUP5 DUP5 SLOAD PUSH2 0x1CF JUMP JUMPDEST DUP3 SSTORE POP POP POP POP JUMP JUMPDEST PUSH0 SWAP1 JUMP JUMPDEST PUSH2 0x28D PUSH2 0x281 JUMP JUMPDEST PUSH2 0x298 DUP2 DUP5 DUP5 PUSH2 0x25C JUMP JUMPDEST POP POP POP JUMP JUMPDEST JUMPDEST DUP2 DUP2 LT ISZERO PUSH2 0x2BB JUMPI PUSH2 0x2B0 PUSH0 DUP3 PUSH2 0x285 JUMP JUMPDEST PUSH1 0x1 DUP2 ADD SWAP1 POP PUSH2 0x29E JUMP JUMPDEST POP POP JUMP JUMPDEST PUSH1 0x1F DUP3 GT ISZERO PUSH2 0x300 JUMPI PUSH2 0x2D1 DUP2 PUSH2 0x1A2 JUMP JUMPDEST PUSH2 0x2DA DUP5 PUSH2 0x1B4 JUMP JUMPDEST DUP2 ADD PUSH1 0x20 DUP6 LT ISZERO PUSH2 0x2E9 JUMPI DUP2 SWAP1 POP JUMPDEST PUSH2 0x2FD PUSH2 0x2F5 DUP6 PUSH2 0x1B4 JUMP JUMPDEST DUP4 ADD DUP3 PUSH2 0x29D JUMP JUMPDEST POP POP JUMPDEST POP POP POP JUMP JUMPDEST PUSH0 DUP3 DUP3 SHR SWAP1 POP SWAP3 SWAP2 POP POP JUMP JUMPDEST PUSH0 PUSH2 0x320 PUSH0 NOT DUP5 PUSH1 0x8 MUL PUSH2 0x305 JUMP JUMPDEST NOT DUP1 DUP4 AND SWAP2 POP POP SWAP3 SWAP2 POP POP JUMP JUMPDEST PUSH0 PUSH2 0x338 DUP4 DUP4 PUSH2 0x311 JUMP JUMPDEST SWAP2 POP DUP3 PUSH1 0x2 MUL DUP3 OR SWAP1 POP SWAP3 SWAP2 POP POP JUMP JUMPDEST PUSH2 0x351 DUP3 PUSH2 0x10E JUMP JUMPDEST PUSH8 0xFFFFFFFFFFFFFFFF DUP2 GT ISZERO PUSH2 0x36A JUMPI PUSH2 0x369 PUSH2 0x118 JUMP JUMPDEST JUMPDEST PUSH2 0x374 DUP3 SLOAD PUSH2 0x172 JUMP JUMPDEST PUSH2 0x37F DUP3 DUP3 DUP6 PUSH2 0x2BF JUMP JUMPDEST PUSH0 PUSH1 0x20 SWAP1 POP PUSH1 0x1F DUP4 GT PUSH1 0x1 DUP2 EQ PUSH2 0x3B0 JUMPI PUSH0 DUP5 ISZERO PUSH2 0x39E JUMPI DUP3 DUP8 ADD MLOAD SWAP1 POP JUMPDEST PUSH2 0x3A8 DUP6 DUP3 PUSH2 0x32D JUMP JUMPDEST DUP7 SSTORE POP PUSH2 0x40F JUMP JUMPDEST PUSH1 0x1F NOT DUP5 AND PUSH2 0x3BE DUP7 PUSH2 0x1A2 JUMP JUMPDEST PUSH0 JUMPDEST DUP3 DUP2 LT ISZERO PUSH2 0x3E5 JUMPI DUP5 DUP10 ADD MLOAD DUP3 SSTORE PUSH1 0x1 DUP3 ADD SWAP2 POP PUSH1 0x20 DUP6 ADD SWAP5 POP PUSH1 0x20 DUP2 ADD SWAP1 POP PUSH2 0x3C0 JUMP JUMPDEST DUP7 DUP4 LT ISZERO PUSH2 0x402 JUMPI DUP5 DUP10 ADD MLOAD PUSH2 0x3FE PUSH1 0x1F DUP10 AND DUP3 PUSH2 0x311 JUMP JUMPDEST DUP4 SSTORE POP JUMPDEST PUSH1 0x1 PUSH1 0x2 DUP9 MUL ADD DUP9 SSTORE POP POP POP JUMPDEST POP POP POP POP POP POP JUMP JUMPDEST PUSH2 0xA39 DUP1 PUSH2 0x424 PUSH0 CODECOPY PUSH0 RETURN INVALID PUSH1 0x80 PUSH1 0x40 MSTORE CALLVALUE DUP1 ISZERO PUSH2 0xF JUMPI PUSH0 DUP1 REVERT JUMPDEST POP PUSH1 0x4 CALLDATASIZE LT PUSH2 0x7B JUMPI PUSH0 CALLDATALOAD PUSH1 0xE0 SHR DUP1 PUSH4 0x6F760F41 GT PUSH2 0x59 JUMPI DUP1 PUSH4 0x6F760F41 EQ PUSH2 0xEA JUMPI DUP1 PUSH4 0x8BAB8DD5 EQ PUSH2 0x106 JUMPI DUP1 PUSH4 0xA7A0D537 EQ PUSH2 0x136 JUMPI DUP1 PUSH4 0xFE379145 EQ PUSH2 0x154 JUMPI PUSH2 0x7B JUMP JUMPDEST DUP1 PUSH4 0x2E64CEC1 EQ PUSH2 0x7F JUMPI DUP1 PUSH4 0x2EBCE631 EQ PUSH2 0x9D JUMPI DUP1 PUSH4 0x6057361D EQ PUSH2 0xCE JUMPI JUMPDEST PUSH0 DUP1 REVERT JUMPDEST PUSH2 0x87 PUSH2 0x184 JUMP JUMPDEST PUSH1 0x40 MLOAD PUSH2 0x94 SWAP2 SWAP1 PUSH2 0x3E0 JUMP JUMPDEST PUSH1 0x40 MLOAD DUP1 SWAP2 SUB SWAP1 RETURN JUMPDEST PUSH2 0xB7 PUSH1 0x4 DUP1 CALLDATASIZE SUB DUP2 ADD SWAP1 PUSH2 0xB2 SWAP2 SWAP1 PUSH2 0x434 JUMP JUMPDEST PUSH2 0x18D JUMP JUMPDEST PUSH1 0x40 MLOAD PUSH2 0xC5 SWAP3 SWAP2 SWAP1 PUSH2 0x4CF JUMP JUMPDEST PUSH1 0x40 MLOAD DUP1 SWAP2 SUB SWAP1 RETURN JUMPDEST PUSH2 0xE8 PUSH1 0x4 DUP1 CALLDATASIZE SUB DUP2 ADD SWAP1 PUSH2 0xE3 SWAP2 SWAP1 PUSH2 0x434 JUMP JUMPDEST PUSH2 0x242 JUMP JUMPDEST STOP JUMPDEST PUSH2 0x104 PUSH1 0x4 DUP1 CALLDATASIZE SUB DUP2 ADD SWAP1 PUSH2 0xFF SWAP2 SWAP1 PUSH2 0x629 JUMP JUMPDEST PUSH2 0x255 JUMP JUMPDEST STOP JUMPDEST PUSH2 0x120 PUSH1 0x4 DUP1 CALLDATASIZE SUB DUP2 ADD SWAP1 PUSH2 0x11B SWAP2 SWAP1 PUSH2 0x683 JUMP JUMPDEST PUSH2 0x2F8 JUMP JUMPDEST PUSH1 0x40 MLOAD PUSH2 0x12D SWAP2 SWAP1 PUSH2 0x3E0 JUMP JUMPDEST PUSH1 0x40 MLOAD DUP1 SWAP2 SUB SWAP1 RETURN JUMPDEST PUSH2 0x13E PUSH2 0x325 JUMP JUMPDEST PUSH1 0x40 MLOAD PUSH2 0x14B SWAP2 SWAP1 PUSH2 0x3E0 JUMP JUMPDEST PUSH1 0x40 MLOAD DUP1 SWAP2 SUB SWAP1 RETURN JUMPDEST PUSH2 0x16E PUSH1 0x4 DUP1 CALLDATASIZE SUB DUP2 ADD SWAP1 PUSH2 0x169 SWAP2 SWAP1 PUSH2 0x434 JUMP JUMPDEST PUSH2 0x32D JUMP JUMPDEST PUSH1 0x40 MLOAD PUSH2 0x17B SWAP2 SWAP1 PUSH2 0x6CA JUMP JUMPDEST PUSH1 0x40 MLOAD DUP1 SWAP2 SUB SWAP1 RETURN JUMPDEST PUSH0 PUSH1 0x1 SLOAD SWAP1 POP SWAP1 JUMP JUMPDEST PUSH1 0x6 DUP2 DUP2 SLOAD DUP2 LT PUSH2 0x19C JUMPI PUSH0 DUP1 REVERT JUMPDEST SWAP1 PUSH0 MSTORE PUSH1 0x20 PUSH0 KECCAK256 SWAP1 PUSH1 0x2 MUL ADD PUSH0 SWAP2 POP SWAP1 POP DUP1 PUSH0 ADD SLOAD SWAP1 DUP1 PUSH1 0x1 ADD DUP1 SLOAD PUSH2 0x1C1 SWAP1 PUSH2 0x717 JUMP JUMPDEST DUP1 PUSH1 0x1F ADD PUSH1 0x20 DUP1 SWAP2 DIV MUL PUSH1 0x20 ADD PUSH1 0x40 MLOAD SWAP1 DUP2 ADD PUSH1 0x40 MSTORE DUP1 SWAP3 SWAP2 SWAP1 DUP2 DUP2 MSTORE PUSH1 0x20 ADD DUP3 DUP1 SLOAD PUSH2 0x1ED SWAP1 PUSH2 0x717 JUMP JUMPDEST DUP1 ISZERO PUSH2 0x238 JUMPI DUP1 PUSH1 0x1F LT PUSH2 0x20F JUMPI PUSH2 0x100 DUP1 DUP4 SLOAD DIV MUL DUP4 MSTORE SWAP2 PUSH1 0x20 ADD SWAP2 PUSH2 0x238 JUMP JUMPDEST DUP3 ADD SWAP2 SWAP1 PUSH0 MSTORE PUSH1 0x20 PUSH0 KECCAK256 SWAP1 JUMPDEST DUP2 SLOAD DUP2 MSTORE SWAP1 PUSH1 0x1 ADD SWAP1 PUSH1 0x20 ADD DUP1 DUP4 GT PUSH2 0x21B JUMPI DUP3 SWAP1 SUB PUSH1 0x1F AND DUP3 ADD SWAP2 JUMPDEST POP POP POP POP POP SWAP1 POP DUP3 JUMP JUMPDEST DUP1 PUSH1 0x1 DUP2 SWAP1 SSTORE POP PUSH2 0x251 PUSH2 0x184 JUMP JUMPDEST POP POP JUMP JUMPDEST PUSH1 0x6 PUSH1 0x40 MLOAD DUP1 PUSH1 0x40 ADD PUSH1 0x40 MSTORE DUP1 DUP4 DUP2 MSTORE PUSH1 0x20 ADD DUP5 DUP2 MSTORE POP SWAP1 DUP1 PUSH1 0x1 DUP2 SLOAD ADD DUP1 DUP3 SSTORE DUP1 SWAP2 POP POP PUSH1 0x1 SWAP1 SUB SWAP1 PUSH0 MSTORE PUSH1 0x20 PUSH0 KECCAK256 SWAP1 PUSH1 0x2 MUL ADD PUSH0 SWAP1 SWAP2 SWAP1 SWAP2 SWAP1 SWAP2 POP PUSH0 DUP3 ADD MLOAD DUP2 PUSH0 ADD SSTORE PUSH1 0x20 DUP3 ADD MLOAD DUP2 PUSH1 0x1 ADD SWAP1 DUP2 PUSH2 0x2AF SWAP2 SWAP1 PUSH2 0x8E4 JUMP JUMPDEST POP POP POP DUP1 PUSH1 0x7 DUP4 PUSH1 0x40 MLOAD PUSH2 0x2C3 SWAP2 SWAP1 PUSH2 0x9ED JUMP JUMPDEST SWAP1 DUP2 MSTORE PUSH1 0x20 ADD PUSH1 0x40 MLOAD DUP1 SWAP2 SUB SWAP1 KECCAK256 DUP2 SWAP1 SSTORE POP DUP2 PUSH1 0x8 PUSH0 DUP4 DUP2 MSTORE PUSH1 0x20 ADD SWAP1 DUP2 MSTORE PUSH1 0x20 ADD PUSH0 KECCAK256 SWAP1 DUP2 PUSH2 0x2F3 SWAP2 SWAP1 PUSH2 0x8E4 JUMP JUMPDEST POP POP POP JUMP JUMPDEST PUSH1 0x7 DUP2 DUP1 MLOAD PUSH1 0x20 DUP2 ADD DUP3 ADD DUP1 MLOAD DUP5 DUP3 MSTORE PUSH1 0x20 DUP4 ADD PUSH1 0x20 DUP6 ADD KECCAK256 DUP2 DUP4 MSTORE DUP1 SWAP6 POP POP POP POP POP POP PUSH0 SWAP2 POP SWAP1 POP SLOAD DUP2 JUMP JUMPDEST PUSH0 PUSH1 0x7 SWAP1 POP SWAP1 JUMP JUMPDEST PUSH1 0x8 PUSH1 0x20 MSTORE DUP1 PUSH0 MSTORE PUSH1 0x40 PUSH0 KECCAK256 PUSH0 SWAP2 POP SWAP1 POP DUP1 SLOAD PUSH2 0x349 SWAP1 PUSH2 0x717 JUMP JUMPDEST DUP1 PUSH1 0x1F ADD PUSH1 0x20 DUP1 SWAP2 DIV MUL PUSH1 0x20 ADD PUSH1 0x40 MLOAD SWAP1 DUP2 ADD PUSH1 0x40 MSTORE DUP1 SWAP3 SWAP2 SWAP1 DUP2 DUP2 MSTORE PUSH1 0x20 ADD DUP3 DUP1 SLOAD PUSH2 0x375 SWAP1 PUSH2 0x717 JUMP JUMPDEST DUP1 ISZERO PUSH2 0x3C0 JUMPI DUP1 PUSH1 0x1F LT PUSH2 0x397 JUMPI PUSH2 0x100 DUP1 DUP4 SLOAD DIV MUL DUP4 MSTORE SWAP2 PUSH1 0x20 ADD SWAP2 PUSH2 0x3C0 JUMP JUMPDEST DUP3 ADD SWAP2 SWAP1 PUSH0 MSTORE PUSH1 0x20 PUSH0 KECCAK256 SWAP1 JUMPDEST DUP2 SLOAD DUP2 MSTORE SWAP1 PUSH1 0x1 ADD SWAP1 PUSH1 0x20 ADD DUP1 DUP4 GT PUSH2 0x3A3 JUMPI DUP3 SWAP1 SUB PUSH1 0x1F AND DUP3 ADD SWAP2 JUMPDEST POP POP POP POP POP DUP2 JUMP JUMPDEST PUSH0 DUP2 SWAP1 POP SWAP2 SWAP1 POP JUMP JUMPDEST PUSH2 0x3DA DUP2 PUSH2 0x3C8 JUMP JUMPDEST DUP3 MSTORE POP POP JUMP JUMPDEST PUSH0 PUSH1 0x20 DUP3 ADD SWAP1 POP PUSH2 0x3F3 PUSH0 DUP4 ADD DUP5 PUSH2 0x3D1 JUMP JUMPDEST SWAP3 SWAP2 POP POP JUMP JUMPDEST PUSH0 PUSH1 0x40 MLOAD SWAP1 POP SWAP1 JUMP JUMPDEST PUSH0 DUP1 REVERT JUMPDEST PUSH0 DUP1 REVERT JUMPDEST PUSH2 0x413 DUP2 PUSH2 0x3C8 JUMP JUMPDEST DUP2 EQ PUSH2 0x41D JUMPI PUSH0 DUP1 REVERT JUMPDEST POP JUMP JUMPDEST PUSH0 DUP2 CALLDATALOAD SWAP1 POP PUSH2 0x42E DUP2 PUSH2 0x40A JUMP JUMPDEST SWAP3 SWAP2 POP POP JUMP JUMPDEST PUSH0 PUSH1 0x20 DUP3 DUP5 SUB SLT ISZERO PUSH2 0x449 JUMPI PUSH2 0x448 PUSH2 0x402 JUMP JUMPDEST JUMPDEST PUSH0 PUSH2 0x456 DUP5 DUP3 DUP6 ADD PUSH2 0x420 JUMP JUMPDEST SWAP2 POP POP SWAP3 SWAP2 POP POP JUMP JUMPDEST PUSH0 DUP2 MLOAD SWAP1 POP SWAP2 SWAP1 POP JUMP JUMPDEST PUSH0 DUP3 DUP3 MSTORE PUSH1 0x20 DUP3 ADD SWAP1 POP SWAP3 SWAP2 POP POP JUMP JUMPDEST DUP3 DUP2 DUP4 MCOPY PUSH0 DUP4 DUP4 ADD MSTORE POP POP POP JUMP JUMPDEST PUSH0 PUSH1 0x1F NOT PUSH1 0x1F DUP4 ADD AND SWAP1 POP SWAP2 SWAP1 POP JUMP JUMPDEST PUSH0 PUSH2 0x4A1 DUP3 PUSH2 0x45F JUMP JUMPDEST PUSH2 0x4AB DUP2 DUP6 PUSH2 0x469 JUMP JUMPDEST SWAP4 POP PUSH2 0x4BB DUP2 DUP6 PUSH1 0x20 DUP7 ADD PUSH2 0x479 JUMP JUMPDEST PUSH2 0x4C4 DUP2 PUSH2 0x487 JUMP JUMPDEST DUP5 ADD SWAP2 POP POP SWAP3 SWAP2 POP POP JUMP JUMPDEST PUSH0 PUSH1 0x40 DUP3 ADD SWAP1 POP PUSH2 0x4E2 PUSH0 DUP4 ADD DUP6 PUSH2 0x3D1 JUMP JUMPDEST DUP2 DUP2 SUB PUSH1 0x20 DUP4 ADD MSTORE PUSH2 0x4F4 DUP2 DUP5 PUSH2 0x497 JUMP JUMPDEST SWAP1 POP SWAP4 SWAP3 POP POP POP JUMP JUMPDEST PUSH0 DUP1 REVERT JUMPDEST PUSH0 DUP1 REVERT JUMPDEST PUSH32 0x4E487B7100000000000000000000000000000000000000000000000000000000 PUSH0 MSTORE PUSH1 0x41 PUSH1 0x4 MSTORE PUSH1 0x24 PUSH0 REVERT JUMPDEST PUSH2 0x53B DUP3 PUSH2 0x487 JUMP JUMPDEST DUP2 ADD DUP2 DUP2 LT PUSH8 0xFFFFFFFFFFFFFFFF DUP3 GT OR ISZERO PUSH2 0x55A JUMPI PUSH2 0x559 PUSH2 0x505 JUMP JUMPDEST JUMPDEST DUP1 PUSH1 0x40 MSTORE POP POP POP JUMP JUMPDEST PUSH0 PUSH2 0x56C PUSH2 0x3F9 JUMP JUMPDEST SWAP1 POP PUSH2 0x578 DUP3 DUP3 PUSH2 0x532 JUMP JUMPDEST SWAP2 SWAP1 POP JUMP JUMPDEST PUSH0 PUSH8 0xFFFFFFFFFFFFFFFF DUP3 GT ISZERO PUSH2 0x597 JUMPI PUSH2 0x596 PUSH2 0x505 JUMP JUMPDEST JUMPDEST PUSH2 0x5A0 DUP3 PUSH2 0x487 JUMP JUMPDEST SWAP1 POP PUSH1 0x20 DUP2 ADD SWAP1 POP SWAP2 SWAP1 POP JUMP JUMPDEST DUP3 DUP2 DUP4 CALLDATACOPY PUSH0 DUP4 DUP4 ADD MSTORE POP POP POP JUMP JUMPDEST PUSH0 PUSH2 0x5CD PUSH2 0x5C8 DUP5 PUSH2 0x57D JUMP JUMPDEST PUSH2 0x563 JUMP JUMPDEST SWAP1 POP DUP3 DUP2 MSTORE PUSH1 0x20 DUP2 ADD DUP5 DUP5 DUP5 ADD GT ISZERO PUSH2 0x5E9 JUMPI PUSH2 0x5E8 PUSH2 0x501 JUMP JUMPDEST JUMPDEST PUSH2 0x5F4 DUP5 DUP3 DUP6 PUSH2 0x5AD JUMP JUMPDEST POP SWAP4 SWAP3 POP POP POP JUMP JUMPDEST PUSH0 DUP3 PUSH1 0x1F DUP4 ADD SLT PUSH2 0x610 JUMPI PUSH2 0x60F PUSH2 0x4FD JUMP JUMPDEST JUMPDEST DUP2 CALLDATALOAD PUSH2 0x620 DUP5 DUP3 PUSH1 0x20 DUP7 ADD PUSH2 0x5BB JUMP JUMPDEST SWAP2 POP POP SWAP3 SWAP2 POP POP JUMP JUMPDEST PUSH0 DUP1 PUSH1 0x40 DUP4 DUP6 SUB SLT ISZERO PUSH2 0x63F JUMPI PUSH2 0x63E PUSH2 0x402 JUMP JUMPDEST JUMPDEST PUSH0 DUP4 ADD CALLDATALOAD PUSH8 0xFFFFFFFFFFFFFFFF DUP2 GT ISZERO PUSH2 0x65C JUMPI PUSH2 0x65B PUSH2 0x406 JUMP JUMPDEST JUMPDEST PUSH2 0x668 DUP6 DUP3 DUP7 ADD PUSH2 0x5FC JUMP JUMPDEST SWAP3 POP POP PUSH1 0x20 PUSH2 0x679 DUP6 DUP3 DUP7 ADD PUSH2 0x420 JUMP JUMPDEST SWAP2 POP POP SWAP3 POP SWAP3 SWAP1 POP JUMP JUMPDEST PUSH0 PUSH1 0x20 DUP3 DUP5 SUB SLT ISZERO PUSH2 0x698 JUMPI PUSH2 0x697 PUSH2 0x402 JUMP JUMPDEST JUMPDEST PUSH0 DUP3 ADD CALLDATALOAD PUSH8 0xFFFFFFFFFFFFFFFF DUP2 GT ISZERO PUSH2 0x6B5 JUMPI PUSH2 0x6B4 PUSH2 0x406 JUMP JUMPDEST JUMPDEST PUSH2 0x6C1 DUP5 DUP3 DUP6 ADD PUSH2 0x5FC JUMP JUMPDEST SWAP2 POP POP SWAP3 SWAP2 POP POP JUMP JUMPDEST PUSH0 PUSH1 0x20 DUP3 ADD SWAP1 POP DUP2 DUP2 SUB PUSH0 DUP4 ADD MSTORE PUSH2 0x6E2 DUP2 DUP5 PUSH2 0x497 JUMP JUMPDEST SWAP1 POP SWAP3 SWAP2 POP POP JUMP JUMPDEST PUSH32 0x4E487B7100000000000000000000000000000000000000000000000000000000 PUSH0 MSTORE PUSH1 0x22 PUSH1 0x4 MSTORE PUSH1 0x24 PUSH0 REVERT JUMPDEST PUSH0 PUSH1 0x2 DUP3 DIV SWAP1 POP PUSH1 0x1 DUP3 AND DUP1 PUSH2 0x72E JUMPI PUSH1 0x7F DUP3 AND SWAP2 POP JUMPDEST PUSH1 0x20 DUP3 LT DUP2 SUB PUSH2 0x741 JUMPI PUSH2 0x740 PUSH2 0x6EA JUMP JUMPDEST JUMPDEST POP SWAP2 SWAP1 POP JUMP JUMPDEST PUSH0 DUP2 SWAP1 POP DUP2 PUSH0 MSTORE PUSH1 0x20 PUSH0 KECCAK256 SWAP1 POP SWAP2 SWAP1 POP JUMP JUMPDEST PUSH0 PUSH1 0x20 PUSH1 0x1F DUP4 ADD DIV SWAP1 POP SWAP2 SWAP1 POP JUMP JUMPDEST PUSH0 DUP3 DUP3 SHL SWAP1 POP SWAP3 SWAP2 POP POP JUMP JUMPDEST PUSH0 PUSH1 0x8 DUP4 MUL PUSH2 0x7A3 PUSH32 0xFFFFFFFFFFFFFFFFFFFFFFFFFFFFFFFFFFFFFFFFFFFFFFFFFFFFFFFFFFFFFFFF DUP3 PUSH2 0x768 JUMP JUMPDEST PUSH2 0x7AD DUP7 DUP4 PUSH2 0x768 JUMP JUMPDEST SWAP6 POP DUP1 NOT DUP5 AND SWAP4 POP DUP1 DUP7 AND DUP5 OR SWAP3 POP POP POP SWAP4 SWAP3 POP POP POP JUMP JUMPDEST PUSH0 DUP2 SWAP1 POP SWAP2 SWAP1 POP JUMP JUMPDEST PUSH0 PUSH2 0x7E8 PUSH2 0x7E3 PUSH2 0x7DE DUP5 PUSH2 0x3C8 JUMP JUMPDEST PUSH2 0x7C5 JUMP JUMPDEST PUSH2 0x3C8 JUMP JUMPDEST SWAP1 POP SWAP2 SWAP1 POP JUMP JUMPDEST PUSH0 DUP2 SWAP1 POP SWAP2 SWAP1 POP JUMP JUMPDEST PUSH2 0x801 DUP4 PUSH2 0x7CE JUMP JUMPDEST PUSH2 0x815 PUSH2 0x80D DUP3 PUSH2 0x7EF JUMP JUMPDEST DUP5 DUP5 SLOAD PUSH2 0x774 JUMP JUMPDEST DUP3 SSTORE POP POP POP POP JUMP JUMPDEST PUSH0 SWAP1 JUMP JUMPDEST PUSH2 0x829 PUSH2 0x81D JUMP JUMPDEST PUSH2 0x834 DUP2 DUP5 DUP5 PUSH2 0x7F8 JUMP JUMPDEST POP POP POP JUMP JUMPDEST JUMPDEST DUP2 DUP2 LT ISZERO PUSH2 0x857 JUMPI PUSH2 0x84C PUSH0 DUP3 PUSH2 0x821 JUMP JUMPDEST PUSH1 0x1 DUP2 ADD SWAP1 POP PUSH2 0x83A JUMP JUMPDEST POP POP JUMP JUMPDEST PUSH1 0x1F DUP3 GT ISZERO PUSH2 0x89C JUMPI PUSH2 0x86D DUP2 PUSH2 0x747 JUMP JUMPDEST PUSH2 0x876 DUP5 PUSH2 0x759 JUMP JUMPDEST DUP2 ADD PUSH1 0x20 DUP6 LT ISZERO PUSH2 0x885 JUMPI DUP2 SWAP1 POP JUMPDEST PUSH2 0x899 PUSH2 0x891 DUP6 PUSH2 0x759 JUMP JUMPDEST DUP4 ADD DUP3 PUSH2 0x839 JUMP JUMPDEST POP POP JUMPDEST POP POP POP JUMP JUMPDEST PUSH0 DUP3 DUP3 SHR SWAP1 POP SWAP3 SWAP2 POP POP JUMP JUMPDEST PUSH0 PUSH2 0x8BC PUSH0 NOT DUP5 PUSH1 0x8 MUL PUSH2 0x8A1 JUMP JUMPDEST NOT DUP1 DUP4 AND SWAP2 POP POP SWAP3 SWAP2 POP POP JUMP JUMPDEST PUSH0 PUSH2 0x8D4 DUP4 DUP4 PUSH2 0x8AD JUMP JUMPDEST SWAP2 POP DUP3 PUSH1 0x2 MUL DUP3 OR SWAP1 POP SWAP3 SWAP2 POP POP JUMP JUMPDEST PUSH2 0x8ED DUP3 PUSH2 0x45F JUMP JUMPDEST PUSH8 0xFFFFFFFFFFFFFFFF DUP2 GT ISZERO PUSH2 0x906 JUMPI PUSH2 0x905 PUSH2 0x505 JUMP JUMPDEST JUMPDEST PUSH2 0x910 DUP3 SLOAD PUSH2 0x717 JUMP JUMPDEST PUSH2 0x91B DUP3 DUP3 DUP6 PUSH2 0x85B JUMP JUMPDEST PUSH0 PUSH1 0x20 SWAP1 POP PUSH1 0x1F DUP4 GT PUSH1 0x1 DUP2 EQ PUSH2 0x94C JUMPI PUSH0 DUP5 ISZERO PUSH2 0x93A JUMPI DUP3 DUP8 ADD MLOAD SWAP1 POP JUMPDEST PUSH2 0x944 DUP6 DUP3 PUSH2 0x8C9 JUMP JUMPDEST DUP7 SSTORE POP PUSH2 0x9AB JUMP JUMPDEST PUSH1 0x1F NOT DUP5 AND PUSH2 0x95A DUP7 PUSH2 0x747 JUMP JUMPDEST PUSH0 JUMPDEST DUP3 DUP2 LT ISZERO PUSH2 0x981 JUMPI DUP5 DUP10 ADD MLOAD DUP3 SSTORE PUSH1 0x1 DUP3 ADD SWAP2 POP PUSH1 0x20 DUP6 ADD SWAP5 POP PUSH1 0x20 DUP2 ADD SWAP1 POP PUSH2 0x95C JUMP JUMPDEST DUP7 DUP4 LT ISZERO PUSH2 0x99E JUMPI DUP5 DUP10 ADD MLOAD PUSH2 0x99A PUSH1 0x1F DUP10 AND DUP3 PUSH2 0x8AD JUMP JUMPDEST DUP4 SSTORE POP JUMPDEST PUSH1 0x1 PUSH1 0x2 DUP9 MUL ADD DUP9 SSTORE POP POP POP JUMPDEST POP POP POP POP POP POP JUMP JUMPDEST PUSH0 DUP2 SWAP1 POP SWAP3 SWAP2 POP POP JUMP JUMPDEST PUSH0 PUSH2 0x9C7 DUP3 PUSH2 0x45F JUMP JUMPDEST PUSH2 0x9D1 DUP2 DUP6 PUSH2 0x9B3 JUMP JUMPDEST SWAP4 POP PUSH2 0x9E1 DUP2 DUP6 PUSH1 0x20 DUP7 ADD PUSH2 0x479 JUMP JUMPDEST DUP1 DUP5 ADD SWAP2 POP POP SWAP3 SWAP2 POP POP JUMP JUMPDEST PUSH0 PUSH2 0x9F8 DUP3 DUP5 PUSH2 0x9BD JUMP JUMPDEST SWAP2 POP DUP2 SWAP1 POP SWAP3 SWAP2 POP POP JUMP INVALID LOG2 PUSH5 0x6970667358 0x22 SLT KECCAK256 0x4F JUMPDEST SWAP13 PUSH21 0xA225E9C743992AEC51044BA94878B8A3CBCF41505 DUP6 0x2B PUSH11 0xD33ACE064736F6C634300 ADDMOD BYTE STOP CALLER "
				},
				"gasEstimates": {
					"creation": {
						"codeDepositCost": "523400",
						"executionCost": "infinite",
						"totalCost": "infinite"
					},
					"external": {
						"addPerson(string,uint256)": "infinite",
						"favoriteNumberToName(uint256)": "infinite",
						"listOfPeople(uint256)": "infinite",
						"nameToFavoriteNumber(string)": "infinite",
						"retrieve()": "2433",
						"something()": "376",
						"store(uint256)": "24699"
					}
				},
				"methodIdentifiers": {
					"addPerson(string,uint256)": "6f760f41",
					"favoriteNumberToName(uint256)": "fe379145",
					"listOfPeople(uint256)": "2ebce631",
					"nameToFavoriteNumber(string)": "8bab8dd5",
					"retrieve()": "2e64cec1",
					"something()": "a7a0d537",
					"store(uint256)": "6057361d"
				}
			},
			"storageLayout": {
				"storage": [
					{
						"astId": 4,
						"contract": "simple_storage.sol:SimpleStorage",
						"label": "hasFavoriteNumber",
						"offset": 0,
						"slot": "0",
						"type": "t_bool"
					},
					{
						"astId": 6,
						"contract": "simple_storage.sol:SimpleStorage",
						"label": "myFavoriteNumber",
						"offset": 0,
						"slot": "1",
						"type": "t_uint256"
					},
					{
						"astId": 9,
						"contract": "simple_storage.sol:SimpleStorage",
						"label": "favoriteNumberInText",
						"offset": 0,
						"slot": "2",
						"type": "t_string_storage"
					},
					{
						"astId": 13,
						"contract": "simple_storage.sol:SimpleStorage",
						"label": "favoriteInt",
						"offset": 0,
						"slot": "3",
						"type": "t_int256"
					},
					{
						"astId": 16,
						"contract": "simple_storage.sol:SimpleStorage",
						"label": "myAddress",
						"offset": 0,
						"slot": "4",
						"type": "t_address"
					},
					{
						"astId": 19,
						"contract": "simple_storage.sol:SimpleStorage",
						"label": "favoriteBytes32",
						"offset": 0,
						"slot": "5",
						"type": "t_bytes32"
					},
					{
						"astId": 57,
						"contract": "simple_storage.sol:SimpleStorage",
						"label": "listOfPeople",
						"offset": 0,
						"slot": "6",
						"type": "t_array(t_struct(Person)53_storage)dyn_storage"
					},
					{
						"astId": 61,
						"contract": "simple_storage.sol:SimpleStorage",
						"label": "nameToFavoriteNumber",
						"offset": 0,
						"slot": "7",
						"type": "t_mapping(t_string_memory_ptr,t_uint256)"
					},
					{
						"astId": 65,
						"contract": "simple_storage.sol:SimpleStorage",
						"label": "favoriteNumberToName",
						"offset": 0,
						"slot": "8",
						"type": "t_mapping(t_uint256,t_string_storage)"
					}
				],
				"types": {
					"t_address": {
						"encoding": "inplace",
						"label": "address",
						"numberOfBytes": "20"
					},
					"t_array(t_struct(Person)53_storage)dyn_storage": {
						"base": "t_struct(Person)53_storage",
						"encoding": "dynamic_array",
						"label": "struct SimpleStorage.Person[]",
						"numberOfBytes": "32"
					},
					"t_bool": {
						"encoding": "inplace",
						"label": "bool",
						"numberOfBytes": "1"
					},
					"t_bytes32": {
						"encoding": "inplace",
						"label": "bytes32",
						"numberOfBytes": "32"
					},
					"t_int256": {
						"encoding": "inplace",
						"label": "int256",
						"numberOfBytes": "32"
					},
					"t_mapping(t_string_memory_ptr,t_uint256)": {
						"encoding": "mapping",
						"key": "t_string_memory_ptr",
						"label": "mapping(string => uint256)",
						"numberOfBytes": "32",
						"value": "t_uint256"
					},
					"t_mapping(t_uint256,t_string_storage)": {
						"encoding": "mapping",
						"key": "t_uint256",
						"label": "mapping(uint256 => string)",
						"numberOfBytes": "32",
						"value": "t_string_storage"
					},
					"t_string_memory_ptr": {
						"encoding": "bytes",
						"label": "string",
						"numberOfBytes": "32"
					},
					"t_string_storage": {
						"encoding": "bytes",
						"label": "string",
						"numberOfBytes": "32"
					},
					"t_struct(Person)53_storage": {
						"encoding": "inplace",
						"label": "struct SimpleStorage.Person",
						"members": [
							{
								"astId": 50,
								"contract": "simple_storage.sol:SimpleStorage",
								"label": "favoriteNumber",
								"offset": 0,
								"slot": "0",
								"type": "t_uint256"
							},
							{
								"astId": 52,
								"contract": "simple_storage.sol:SimpleStorage",
								"label": "name",
								"offset": 0,
								"slot": "1",
								"type": "t_string_storage"
							}
						],
						"numberOfBytes": "64"
					},
					"t_uint256": {
						"encoding": "inplace",
						"label": "uint256",
						"numberOfBytes": "32"
					}
				}
			},
			"userdoc": {
				"kind": "user",
				"methods": {},
				"version": 1
			}
		}
	}
}